:020000040800F2
:10000000086C002025A40008419B0008439B0008C1
:10001000459B0008479B0008499B00080000000022
:100020000000000000000000000000004B9B0008E2
:100030004D9B0008000000004F9B0008519B0008EA
:1000400051A4000855A4000859A400085DA40008A4
:1000500061A4000865A400085D9B0008679B000878
:10006000719B000869A400086DA4000871A4000831
:1000700075A4000879A400087DA4000881A40008E4
:1000800085A4000889A400088DA4000891A4000894
:1000900095A4000899A400089DA40008A1A4000844
:1000A000A5A40008A9A40008ADA40008B1A40008F4
:1000B000B5A40008B9A40008BDA40008C1A40008A4
:1000C000C5A40008C9A40008CDA40008D1A4000854
:1000D000D5A40008D9A40008DDA40008E1A4000804
:1000E0007B9B0008E5A40008919B0008E9A4000898
:1000F000EDA40008F1A40008F5A40008F9A4000884
:10010000FDA4000801A5000805A5000809A5000830
:100110000DA5000811A5000815A5000819A50008DF
:10012000FF9B00080B9C00081DA5000821A50008E6
:1001300025A5000829A500082DA5000831A500085F
:1001400035A5000839A500083DA50008879B0008D3
:1001500041A5000845A5000849A500084DA50008CF
:1001600051A5000855A5000859A500085DA500087F
:1001700061A5000865A5000869A500080000000049
:100180006DA5000871A5000875A5000879A50008EF
:100190007DA5000881A5000885A5000889A500089F
:1001A0008DA5000891A5000895A50008002100284C
:1001B00001D1012034E0416A0029022180F8351084
:1001C00001680968174A1140426883681A43C36886
:1001D0001A4303691A4343691A4383691A43C3697B
:1001E0001A43036A1A431143426A042A03D1C26ABA
:1001F000036B1A4311430268116001684969C90819
:10020000C900426A1143426A042A01D1826A114339
:10021000026851610021C164012180F8351000207D
:10022000704700003F8010F038B5040094F83400A7
:10023000012801D1022033E0012084F8340002209B
:1002400084F8350020680068400840002568286070
:10025000200002F01DFC2068006850F010002168AA
:1002600008602068006850F0080021680860206875
:10027000006850F00400216808602068406950F070
:100280008000216848612068006850F00200216801
:1002900008602068006850F00100216808600020B4
:1002A00032BD000010B504002068DFF8F01B884262
:1002B00062D3DFF8EC0B00682168DFF8E82B91428D
:1002C00001D1082156E02168DFF8DC2B914201D1F1
:1002D00008214FE02168DFF8D42B914201D1082199
:1002E00048E02168DFF8C82B914201D1082141E0A4
:1002F0002168DFF8C02B914202D14FF4007139E040
:100300002168DFF8B42B914202D14FF4007131E043
:100310002168DFF8A82B914202D14FF4007129E047
:100320002168DFF8DC2B914202D14FF4007121E00B
:100330002168DFF8D02B914202D15FF4002119E04F
:100340002168DFF8C42B914202D15FF4002111E053
:100350002168DFF8B82B914202D15FF4002109E057
:100360002168DFF8AC2B914202D15FF4002101E05B
:100370005FF00071084031E12068DFF8981B884287
:1003800062D3DFF8940B00682168DFF8182B9142E4
:1003900001D1082156E02168DFF80C2B914201D1F0
:1003A00008214FE02168DFF8042B914201D1082198
:1003B00048E02168DFF8F82A914201D1082141E0A4
:1003C0002168DFF8F02A914202D14FF4007139E040
:1003D0002168DFF8E42A914202D14FF4007131E044
:1003E0002168DFF8D82A914202D14FF4007129E048
:1003F0002168DFF80C2B914202D14FF4007121E00B
:100400002168DFF8002B914202D15FF4002119E04E
:100410002168DFF8F42A914202D15FF4002111E053
:100420002168DFF8E82A914202D15FF4002109E057
:100430002168DFF8DC2A914202D15FF4002101E05B
:100440005FF000710840C9E02068DFF8D01A8842E8
:1004500062D3DFF8CC0A00682168DFF8482A9142AD
:1004600001D1082156E02168DFF83C2A914201D1F0
:1004700008214FE02168DFF8342A914201D1082198
:1004800048E02168DFF8282A914201D1082141E0A3
:100490002168DFF8202A914202D14FF4007139E03F
:1004A0002168DFF8142A914202D14FF4007131E043
:1004B0002168DFF8082A914202D14FF4007129E047
:1004C0002168DFF83C2A914202D14FF4007121E00B
:1004D0002168DFF8302A914202D15FF4002119E04F
:1004E0002168DFF8242A914202D15FF4002111E053
:1004F0002168DFF8182A914202D15FF4002109E057
:100500002168DFF80C2A914202D15FF4002101E05A
:100510005FF00071084061E0DFF8080A00682168B8
:10052000DFF88029914201D1082156E02168DFF8E7
:100530007829914201D108214FE02168DFF86C2928
:10054000914201D1082148E02168DFF864299142F5
:1005500001D1082141E02168DFF85829914202D1F8
:100560004FF4007139E02168DFF84C29914202D143
:100570004FF4007131E02168DFF84029914202D147
:100580004FF4007129E02168DFF87429914202D10B
:100590004FF4007121E02168DFF86829914202D10F
:1005A0005FF4002119E02168DFF85C29914202D153
:1005B0005FF4002111E02168DFF85029914202D157
:1005C0005FF4002109E02168DFF84429914202D15B
:1005D0005FF4002101E05FF000710840002800F0A6
:1005E000B18120680068400740F1AC812068006854
:1005F00030F00400216808602068DFF8A018884205
:1006000061D32068DFF89C18884201D1082056E0A9
:100610002068DFF89418884201D108204FE0206854
:10062000DFF88818884201D1082048E02068DFF808
:100630008018884201D1082041E02068DFF8741852
:10064000884202D14FF4007039E02068DFF8681862
:10065000884202D14FF4007031E02068DFF85C1866
:10066000884202D14FF4007029E02068DFF890182A
:10067000884202D14FF4007021E02068DFF884182E
:10068000884202D15FF4002019E02068DFF8781872
:10069000884202D15FF4002011E02068DFF86C1876
:1006A000884202D15FF4002009E02068DFF860187A
:1006B000884202D15FF4002001E05FF00070DFF8B3
:1006C000681808602EE12068DFF84818884261D376
:1006D0002068DFF8D017884201D1082056E0206852
:1006E000DFF8C417884201D108204FE02068DFF806
:1006F000BC17884201D1082048E02068DFF8B01715
:10070000884201D1082041E02068DFF8A81788421C
:1007100002D14FF4007039E02068DFF89C1788425E
:1007200002D14FF4007031E02068DFF89017884262
:1007300002D14FF4007029E02068DFF8C417884226
:1007400002D14FF4007021E02068DFF8B81788422A
:1007500002D15FF4002019E02068DFF8AC1788426E
:1007600002D15FF4002011E02068DFF8A017884272
:1007700002D15FF4002009E02068DFF89417884276
:1007800002D15FF4002001E05FF00070DFF89C17F9
:100790000860C7E02068DFF88417884261D32068CA
:1007A000DFF80017884201D1082056E02068DFF802
:1007B000F816884201D108204FE02068DFF8EC16D7
:1007C000884201D1082048E02068DFF8E41688421A
:1007D00001D1082041E02068DFF8D816884202D114
:1007E0004FF4007039E02068DFF8CC16884202D15F
:1007F0004FF4007031E02068DFF8C016884202D163
:100800004FF4007029E02068DFF8F416884202D126
:100810004FF4007021E02068DFF8E816884202D12A
:100820005FF4002019E02068DFF8DC16884202D16E
:100830005FF4002011E02068DFF8D016884202D172
:100840005FF4002009E02068DFF8C416884202D176
:100850005FF4002001E05FF00070DFF8D41608605C
:1008600060E02068DFF83C16884201D1082056E09D
:100870002068DFF83416884201D108204FE0206854
:10088000DFF82816884201D1082048E02068DFF808
:100890002016884201D1082041E02068DFF81416B4
:1008A000884202D14FF4007039E02068DFF8081662
:1008B000884202D14FF4007031E02068DFF8FC1567
:1008C000884202D14FF4007029E02068DFF830162A
:1008D000884202D14FF4007021E02068DFF824162E
:1008E000884202D15FF4002019E02068DFF8181672
:1008F000884202D15FF4002011E02068DFF80C1676
:10090000884202D15FF4002009E02068DFF8001679
:10091000884202D15FF4002001E05FF00070DFF850
:10092000C81B0860E06C50F00100E064042084F80B
:100930003500002084F83400A06C002802D020008C
:10094000A16C88472068DFF85415884262D3DFF82D
:10095000500500682168DFF84C25914202D1DFF88C
:100960008C1B55E02168DFF84025914202D1DFF869
:100970007C1B4DE02168DFF83425914202D1DFF87D
:100980006C1B45E02168DFF82825914202D1DFF891
:100990005C1B3DE02168DFF81C25914201D140211C
:1009A00036E02168DFF81025914201D140212FE087
:1009B0002168DFF80825914201D1402128E0216813
:1009C000DFF83C25914201D1402121E02168DFF888
:1009D0003425914202D15FF4803119E02168DFF8BB
:1009E0002825914202D15FF4803111E02168DFF8BF
:1009F0001C25914202D15FF4803109E02168DFF8C3
:100A00001025914202D15FF4803101E05FF4800152
:100A100008402AE12068DFF8FC14884262D3DFF83E
:100A2000F80400682168DFF87C24914202D1DFF8E5
:100A3000BC1A55E02168DFF87024914202D1DFF83A
:100A4000AC1A4DE02168DFF86424914202D1DFF84E
:100A50009C1A45E02168DFF85824914202D1DFF862
:100A60008C1A3DE02168DFF84C24914201D14021ED
:100A700036E02168DFF84024914201D140212FE087
:100A80002168DFF83824914201D1402128E0216813
:100A9000DFF86C24914201D1402121E02168DFF888
:100AA0006424914202D15FF4803119E02168DFF8BB
:100AB0005824914202D15FF4803111E02168DFF8BF
:100AC0004C24914202D15FF4803109E02168DFF8C3
:100AD0004024914202D15FF4803101E05FF4800153
:100AE0000840C2E02068DFF83414884262D3DFF89F
:100AF000300400682168DFF8AC23914202D1DFF8AE
:100B0000EC1955E02168DFF8A023914202D1DFF80B
:100B1000DC194DE02168DFF89423914202D1DFF81F
:100B2000CC1945E02168DFF88823914202D1DFF833
:100B3000BC193DE02168DFF87C23914201D14021BE
:100B400036E02168DFF87023914201D140212FE087
:100B50002168DFF86823914201D1402128E0216813
:100B6000DFF89C23914201D1402121E02168DFF888
:100B70009423914202D15FF4803119E02168DFF8BB
:100B80008823914202D15FF4803111E02168DFF8BF
:100B90007C23914202D15FF4803109E02168DFF8C3
:100BA0007023914202D15FF4803101E05FF4800153
:100BB00008405AE0DFF86C0300682168DFF8E4229F
:100BC000914202D1DFF824194EE02168DFF8D822E3
:100BD000914202D1DFF8141946E02168DFF8CC22F7
:100BE000914202D1DFF804193EE02168B04A9142F7
:100BF00002D1DFF8F81837E02168AE4A914201D1FE
:100C0000402131E02168AC4A914201D140212BE0E2
:100C10002168AA4A914201D1402125E02168DFF8EC
:100C2000E022914201D140211EE02168DFF8D42268
:100C3000914202D15FF4803116E02168B24A9142BC
:100C400002D15FF480310FE02168B04A914202D1B5
:100C50005FF4803108E02168AD4A914202D15FF42F
:100C6000803101E05FF480010840002800F0B3818A
:100C700020684069000640F1AE812068406930F08C
:100C800080002168486120688449884254D32068E4
:100C90008449884202D1DFF854084AE0206882493A
:100CA000884202D1DFF8440843E020687F49884247
:100CB00002D1DFF838083CE020687D49884202D143
:100CC000DFF8280835E020687A49884201D14020C1
:100CD0002FE020687849884201D1402029E020682F
:100CE0007649884201D1402023E020688449884227
:100CF00001D140201DE020688249884202D15FF482
:100D0000803016E020688049884202D15FF480304C
:100D10000FE020687D49884202D15FF4803008E00E
:100D200020687B49884202D15FF4803001E05FF4A3
:100D300080007D4908603EE120687649884254D3AE
:100D400020685849884202D1DFF8A0074AE02068AD
:100D50005549884202D1DFF8940743E0206853499F
:100D6000884202D1DFF884073CE02068504988427D
:100D700002D1DFF8780735E020684E49884201D17A
:100D800040202FE020684C49884201D1402029E0D2
:100D900020684A49884201D1402023E02068584910
:100DA000884201D140201DE020685649884202D186
:100DB0005FF4803016E020685349884202D15FF426
:100DC00080300FE020685149884202D15FF48030C2
:100DD00008E020684E49884202D15FF4803001E08B
:100DE0005FF4800051490860E5E020684B49884283
:100DF00066D320682B49884202D1DFF8F0064AE02A
:100E000020682949884202D1DFF8E00643E02068E3
:100E10002649884202D1DFF8D4063CE02068244904
:100E2000884202D1DFF8C40635E0206821498842B3
:100E300001D140202FE020681F49884201D1402085
:100E400029E020681D49884201D1402023E0206824
:100E50002B49884201D140201DE020682949884261
:100E600002D15FF4803016E020682749884202D121
:100E70005FF480300FE020682449884202D15FF49B
:100E8000803008E020682249884202D15FF4803037
:100E900001E05FF48000264908608CE0596402405C
:100EA000046402401060024010640240706002401E
:100EB000706402402860024028640240886002405A
:100EC0002068DFF8041C884202D1DFF820066FE0BA
:100ED0002068DFF8F81B884202D1DFF8100667E0CF
:100EE0002068DFF8EC1B884202D1DFF800065FE0E3
:100EF0002068DFF8E01B88421CD1DFF8F00557E0DE
:100F0000886402404060024040640240A0600240A9
:100F1000A0640240B960024000640240596002408F
:100F200004600240006002400C6402400864024019
:100F30000C6002402068DFF8A01B884201D14020ED
:100F400036E02068DFF8941B884201D140202FE072
:100F50002068DFF80C1C884201D1402028E020687E
:100F6000DFF8001C884201D1402021E02068DFF832
:100F7000F81B884202D15FF4803019E02068DFF866
:100F8000EC1B884202D15FF4803011E02068DFF86A
:100F9000E01B884202D15FF4803009E02068DFF86E
:100FA000D41B884202D15FF4803001E05FF48000FE
:100FB000DFF834150860E06C50F00200E0640420B3
:100FC00084F83500002084F83400A06C002802D09A
:100FD0002000A16C88472068DFF89C1B884266D3FC
:100FE000DFF8980B00682168DFF8DC2A914202D113
:100FF000DFF88C1B59E02168DFF8D02A914202D13A
:10100000DFF87C1B51E02168DFF8C42A914202D14D
:10101000DFF86C1B49E02168DFF8B82A914202D161
:10102000DFF85C1B41E02168DFF8AC2A914202D175
:101030004FF4807139E02168DFF8A02A914202D193
:101040004FF4807131E02168DFF8142B914202D116
:101050004FF4807129E02168DFF8082B914202D11A
:101060004FF4807121E02168DFF8FC2A914202D11F
:101070005FF4802119E02168DFF8F02A914202D163
:101080005FF4802111E02168DFF8E42A914202D167
:101090005FF4802109E02168DFF8D82A914202D16B
:1010A0005FF4802101E05FF0807108403DE120683D
:1010B000DFF89C1B884266D3DFF8980B0068216834
:1010C000DFF8042A914202D1DFF8B41A59E021680E
:1010D000DFF8F829914202D1DFF8A41A51E0216823
:1010E000DFF8EC29914202D1DFF8941A49E0216837
:1010F000DFF8E029914202D1DFF8841A41E021684B
:10110000DFF8D429914202D14FF4807139E021688F
:10111000DFF8C829914202D14FF4807131E0216893
:10112000DFF83C2A914202D14FF4807129E0216816
:10113000DFF8302A914202D14FF4807121E021681A
:10114000DFF8242A914202D15FF4802119E021685E
:10115000DFF8182A914202D15FF4802111E0216862
:10116000DFF80C2A914202D15FF4802109E0216866
:10117000DFF8002A914202D15FF4802101E05FF0A4
:1011800080710840D1E02068DFF89C1B884266D35C
:10119000DFF8980B00682168DFF82C29914202D112
:1011A000DFF8DC1959E02168DFF82029914202D1EB
:1011B000DFF8CC1951E02168DFF81429914202D1FF
:1011C000DFF8BC1949E02168DFF80829914202D113
:1011D000DFF8AC1941E02168DFF8FC28914202D128
:1011E0004FF4807139E02168DFF8F028914202D194
:1011F0004FF4807131E02168DFF86429914202D117
:101200004FF4807129E02168DFF85829914202D11A
:101210004FF4807121E02168DFF84C29914202D11E
:101220005FF4802119E02168DFF84029914202D162
:101230005FF4802111E02168DFF83429914202D166
:101240005FF4802109E02168DFF82829914202D16A
:101250005FF4802101E05FF08071084065E0DFF815
:10126000D00A00682168DFF86028914202D1DFF8D7
:10127000101959E02168DFF85428914202D1DFF8B3
:10128000001951E02168DFF84828914202D1DFF8C7
:10129000F01849E02168DFF83C28914202D1DFF8DC
:1012A000E01841E02168DFF83028914202D14FF484
:1012B000807139E02168DFF82428914202D14FF48F
:1012C000807131E02168DFF89828914202D14FF413
:1012D000807129E02168DFF88C28914202D14FF417
:1012E000807121E02168DFF88028914202D15FF40B
:1012F000802119E02168DFF87428914202D15FF45F
:10130000802111E02168DFF86828914202D15FF462
:10131000802109E02168DFF85C28914202D15FF466
:10132000802101E05FF080710840002800F0C68154
:1013300020680068800740F1C1812068006830F0B3
:101340000200216808602068DFF82C18884265D305
:101350002068DFF87417884202D1DFF8240859E0CA
:101360002068DFF86817884202D1DFF8140851E0DE
:101370002068DFF85C17884202D1DFF8040849E0F2
:101380002068DFF85017884202D1DFF8F40741E007
:101390002068DFF84417884202D14FF4807039E0AA
:1013A0002068DFF83817884202D14FF4807031E0AE
:1013B0002068DFF8AC17884202D14FF4807029E032
:1013C0002068DFF8A017884202D14FF4807021E036
:1013D0002068DFF89417884202D15FF4802019E07A
:1013E0002068DFF88817884202D15FF4802011E07E
:1013F0002068DFF87C17884202D15FF4802009E082
:101400002068DFF87017884202D15FF4802001E085
:101410005FF08070DFF8D01A08603FE12068DFF8E5
:10142000301888426AD32068DFF89C16884202D1BF
:10143000DFF84C075EE02068DFF89016884202D1A2
:10144000DFF83C0756E02068DFF88416884202D1B6
:10145000DFF82C074EE02068DFF87816884202D1CA
:10146000DFF81C0746E02068DFF86C16884202D1DE
:101470004FF480703EE02068DFF86016884202D1A9
:101480004FF4807036E02068DFF8D416884202D12D
:101490004FF480702EE02068DFF8C816884202D131
:1014A0004FF4807026E02068DFF8BC16884202D135
:1014B0005FF480201EE02068DFF8B016884202D179
:1014C0005FF4802016E02068DFF8A416884202D17D
:1014D0005FF480200EE02068DFF89816884207D17C
:1014E0005FF4802006E000BF086002400100800039
:1014F0005FF08070DFF8F4190860CFE02068DFF853
:101500002818884265D32068DFF8BC15884202D1CC
:10151000DFF86C0659E02068DFF8B015884202D188
:10152000DFF85C0651E02068DFF8A415884202D19C
:10153000DFF84C0649E02068DFF89815884202D1B0
:10154000DFF83C0641E02068DFF88C15884202D1C4
:101550004FF4807039E02068DFF88015884202D1AE
:101560004FF4807031E02068DFF8F415884202D132
:101570004FF4807029E02068DFF8E815884202D136
:101580004FF4807021E02068DFF8DC15884202D13A
:101590005FF4802019E02068DFF8D015884202D17E
:1015A0005FF4802011E02068DFF8C415884202D182
:1015B0005FF4802009E02068DFF8B815884202D186
:1015C0005FF4802001E05FF08070DFF8241908608C
:1015D00064E02068DFF8F014884202D1DFF8A0054B
:1015E00059E02068DFF8E414884202D1DFF8900562
:1015F00051E02068DFF8D814884202D1DFF8800576
:1016000049E02068DFF8CC14884202D1DFF8700589
:1016100041E02068DFF8C014884202D14FF48070A6
:1016200039E02068DFF8B414884202D14FF48070AA
:1016300031E02068DFF82815884202D14FF480702D
:1016400029E02068DFF81C15884202D14FF4807031
:1016500021E02068DFF81015884202D15FF4802075
:1016600019E02068DFF80415884202D15FF4802079
:1016700011E02068DFF8F814884202D15FF480207E
:1016800009E02068DFF8EC14884202D15FF4802082
:1016900001E05FF08070DFF85C180860E06C50F0EB
:1016A0000400E064042084F83500002084F834004D
:1016B000A06C002802D02000A16C88472068DFF8C9
:1016C000B814884262D3DFF8B40400682168DFF8F8
:1016D000F823914201D1102156E02168DFF8EC2374
:1016E000914201D110214FE02168DFF8E4239142BB
:1016F00001D1102148E02168DFF8D823914201D1BF
:10170000102141E02168DFF8D023914202D14FF44B
:10171000806139E02168DFF8C423914202D14FF49F
:10172000806131E02168DFF83824914202D14FF422
:10173000806129E02168DFF82C24914202D14FF426
:10174000806121E02168DFF82024914202D15FF41A
:10175000801119E02168DFF81424914202D15FF46E
:10176000801111E02168DFF80824914202D15FF472
:10177000801109E02168DFF8FC23914202D15FF477
:10178000801101E05FF08061084019E12068DFF816
:10179000C014884262D3DFF8BC0400682168DFF817
:1017A0002823914201D1102156E02168DFF81C2343
:1017B000914201D110214FE02168DFF814239142BA
:1017C00001D1102148E02168DFF80823914201D1BE
:1017D000102141E02168DFF80023914202D14FF44B
:1017E000806139E02168DFF8F422914202D14FF4A0
:1017F000806131E02168DFF86823914202D14FF423
:10180000806129E02168DFF85C23914202D14FF426
:10181000806121E02168DFF85023914202D15FF41A
:10182000801119E02168DFF84423914202D15FF46E
:10183000801111E02168DFF83823914202D15FF472
:10184000801109E02168DFF82C23914202D15FF476
:10185000801101E05FF080610840B1E02068DFF8AE
:10186000C814884256D3DFF8C40400682168964A39
:10187000914201D110214BE02168944A914201D15B
:10188000102145E02168924A914201D110213FE0A8
:101890002168904A914201D1102139E021688E4A95
:1018A000914202D14FF4806132E021688B4A91422B
:1018B00002D14FF480612BE02168A94A914202D104
:1018C0004FF4806124E02168A64A914202D14FF48E
:1018D00080611DE02168A44A914202D15FF4801129
:1018E00016E02168A14A914202D15FF480110FE015
:1018F00021689F4A914202D15FF4801108E021687B
:101900009C4A914202D15FF4801101E05FF0806156
:10191000084055E0DFF81804006821686A4A9142DF
:1019200001D110214BE02168684A914201D1102178
:1019300045E02168664A914201D110213FE02168CB
:10194000644A914201D1102139E02168624A9142F2
:1019500002D14FF4806132E02168604A914202D1A5
:101960004FF480612BE021687D4A914202D14FF40F
:10197000806124E021687B4A914202D14FF480616A
:101980001DE02168784A914202D15FF4801116E08F
:101990002168764A914202D15FF480110FE02168FC
:1019A000734A914202D15FF4801108E02168714AC4
:1019B000914202D15FF4801101E05FF08061084044
:1019C000002800F0708320680068000740F16B83F6
:1019D00020680068400340F1B6812068664988426B
:1019E00055D320683849884201D110204BE0206847
:1019F0003649884201D1102045E0206834498842A8
:101A000001D110203FE020683249884201D11020E6
:101A100039E020683049884202D14FF4806032E0DA
:101A200020682E49884202D14FF480602BE0206864
:101A30004B49884202D14FF4806024E02068494934
:101A4000884202D14FF480601DE0206846498842F8
:101A500002D15FF4801016E020684449884202D128
:101A60005FF480100FE020684149884202D15FF4A2
:101A7000801008E020683F49884202D15FF480105E
:101A800001E05FF08060DFF86014086044E12068E6
:101A90006F49884276D320680B49884201D11020D3
:101AA0005AE020680949884201D1102054E020689A
:101AB0000749884201D110204EE02068054988423C
:101AC0000ED1102048E000BF1060024010640240B8
:101AD0007060024070640240286002402864024046
:101AE0002068DFF8401B884202D14FF4806033E069
:101AF0002068DFF8F81B884202D14FF480602BE0A9
:101B000020681749884202D14FF4806024E02068A1
:101B10001449884202D14FF480601DE020681249C8
:101B2000884202D15FF4801016E020680F49884295
:101B300002D15FF480100FE020680D49884202D185
:101B40005FF4801008E020680A49884202D15FF4FF
:101B5000801001E05FF08060DFF890130860DBE048
:101B60008860024088640240406002404064024055
:101B7000A0600240A0640240596402400464024034
:101B80000400800020686849884265D32068DFF837
:101B9000601B884201D1102056E02068DFF8541BFA
:101BA000884201D110204FE02068DFF84C1B8842AA
:101BB00001D1102048E02068DFF8401B884201D1A5
:101BC000102041E02068DFF85C1A884202D14FF40F
:101BD000806039E02068DFF8141B884202D14FF49E
:101BE000806031E02068DFF8181B884202D14FF492
:101BF000806029E02068DFF8FC1B884202D14FF4A6
:101C0000806021E02068DFF8F01B884202D15FF499
:101C1000801019E02068DFF8E41B884202D15FF4ED
:101C2000801011E02068DFF8D81B884202D15FF4F1
:101C3000801009E02068DFF8CC1B884202D15FF4F5
:101C4000801001E05FF08060A949086064E000BF97
:101C5000B9600240006402402068DFF8941A8842AC
:101C600001D1102056E02068DFF8881A884201D19F
:101C700010204FE02068DFF8801A884201D1102040
:101C800048E02068DFF8741A884201D1102041E052
:101C90002068DFF89019884202D14FF4806039E063
:101CA0002068DFF8481A884202D14FF4806031E0A2
:101CB0002068DFF84C1A884202D14FF4806029E096
:101CC0002068DFF8301B884202D14FF4806021E0A9
:101CD0002068DFF8241B884202D15FF4801019E0ED
:101CE0002068DFF8181B884202D15FF4801011E0F1
:101CF0002068DFF80C1B884202D15FF4801009E0F5
:101D00002068DFF8001B884202D15FF4801001E0F8
:101D10005FF080607749086020680068000309D49C
:101D2000312084F83500B8E1596002400460024077
:101D30000060024020680068000340F1AE8141204D
:101D400084F83500A9E120680068C00505D4206842
:101D5000006830F00800216808602068DFF85C1B2C
:101D6000884260D32068DFF88819884201D11020AA
:101D700056E02068DFF87C19884201D110204FE03E
:101D80002068DFF87419884201D1102048E02068EB
:101D9000DFF86819884201D1102041E02068DFF89F
:101DA0008418884202D14FF4806039E02068DFF85F
:101DB0003C19884202D14FF4806031E02068DFF89E
:101DC0004019884202D14FF4806029E02068DFF892
:101DD000241A884202D14FF4806021E02068DFF8A5
:101DE000181A884202D15FF4801019E02068DFF8E9
:101DF0000C1A884202D15FF4801011E02068DFF8ED
:101E0000001A884202D15FF4801009E02068DFF8F0
:101E1000F419884202D15FF4801001E05FF0806025
:101E20003149086036E12068DFF8A01B884269D399
:101E30002068DFF8BC18884201D110205EE02068DD
:101E4000DFF8B018884201D1102057E02068DFF891
:101E5000A818884201D1102050E02068DFF89C18B3
:101E6000884201D1102049E02068DFF8B817884285
:101E700002D14FF4806041E02068DFF8701888429A
:101E800002D14FF4806039E02068DFF8741888428E
:101E900002D14FF4806031E02068DFF858198842A1
:101EA00002D14FF4806029E02068DFF84C198842A5
:101EB00002D15FF4801021E02068DFF840198842E9
:101EC00002D15FF4801019E02068DFF834198842ED
:101ED00002D15FF4801011E02068DFF828198842F1
:101EE0000AD15FF4801009E00C64024008640240EB
:101EF0000C600240086002405FF08060DFF83C1B2D
:101F00000860C7E02068DFF8381B884261D320688A
:101F1000DFF8DC17884201D1102056E02068DFF896
:101F2000D417884201D110204FE02068DFF8C8178D
:101F3000884201D1102048E02068DFF8C0178842AD
:101F400001D1102041E02068DFF8D816884202D184
:101F50004FF4806039E02068DFF89017884202D1A2
:101F60004FF4806031E02068DFF89417884202D196
:101F70004FF4806029E02068DFF87818884202D1A9
:101F80004FF4806021E02068DFF86C18884202D1AD
:101F90005FF4801019E02068DFF86018884202D1F1
:101FA0005FF4801011E02068DFF85418884202D1F5
:101FB0005FF4801009E02068DFF84818884202D1F9
:101FC0005FF4801001E05FF08060DFF8781A08604D
:101FD00060E02068DFF81817884201D1102056E031
:101FE0002068DFF81017884201D110204FE02068E8
:101FF000DFF80417884201D1102048E02068DFF89C
:10200000FC16884201D1102041E02068DFF8141648
:10201000884202D14FF4806039E02068DFF8CC16A6
:10202000884202D14FF4806031E02068DFF8D0169A
:10203000884202D14FF4806029E02068DFF8B417AD
:10204000884202D14FF4806021E02068DFF8A817B1
:10205000884202D15FF4801019E02068DFF89C17F5
:10206000884202D15FF4801011E02068DFF89017F9
:10207000884202D15FF4801009E02068DFF88417FD
:10208000884202D15FF4801001E05FF08060DFF8E9
:10209000B8190860312084F83500206C002802D07F
:1020A0002000216C88472068DFF81018884262D32E
:1020B000DFF8980900682168DFF83426914201D1E1
:1020C000202156E02168DFF82C26914201D1202101
:1020D0004FE02168DFF82026914201D1202148E01D
:1020E0002168DFF81826914201D1202141E02168C2
:1020F000DFF83025914202D14FF4006139E02168C8
:10210000DFF8E825914202D14FF4006131E0216807
:10211000DFF8EC25914202D14FF4006129E02168FB
:10212000DFF8D026914202D14FF4006121E021680E
:10213000DFF8C426914202D15FF4001119E0216852
:10214000DFF8B826914202D15FF4001111E0216856
:10215000DFF8AC26914202D15FF4001109E021685A
:10216000DFF8A026914202D15FF4001101E05FF098
:102170000061084030E12068DFF85018884262D3DF
:10218000DFF8CC0800682168DFF86425914201D1AE
:10219000202156E02168DFF85C25914201D1202101
:1021A0004FE02168DFF85025914201D1202148E01D
:1021B0002168DFF84825914201D1202141E02168C2
:1021C000DFF86024914202D14FF4006139E02168C8
:1021D000DFF81825914202D14FF4006131E0216807
:1021E000DFF81C25914202D14FF4006129E02168FB
:1021F000DFF80026914202D14FF4006121E021680E
:10220000DFF8F425914202D15FF4001119E0216852
:10221000DFF8E825914202D15FF4001111E0216856
:10222000DFF8DC25914202D15FF4001109E021685A
:10223000DFF8D025914202D15FF4001101E05FF098
:1022400000610840C8E02068DFF8F417884262D3D4
:10225000DFF8000800682168DFF89424914201D17A
:10226000202156E02168DFF88C24914201D1202101
:102270004FE02168DFF88024914201D1202148E01D
:102280002168DFF87824914201D1202141E02168C2
:10229000DFF89023914202D14FF4006139E02168C8
:1022A000DFF84824914202D14FF4006131E0216807
:1022B000DFF84C24914202D14FF4006129E02168FB
:1022C000DFF83025914202D14FF4006121E021680E
:1022D000DFF82425914202D15FF4001119E0216852
:1022E000DFF81825914202D15FF4001111E0216856
:1022F000DFF80C25914202D15FF4001109E021685A
:10230000DFF80025914202D15FF4001101E05FF097
:102310000061084060E0DFF8400700682168DFF8EE
:10232000D023914201D1202155E02168DFF8C42358
:10233000914201D120214EE02168DFF8BC23914277
:1023400001D1202147E02168DFF8B023914201D17B
:10235000202140E02168B34A914202D14FF400614C
:1023600039E02168DFF88423914202D14FF4006103
:1023700031E02168DFF88823914202D14FF40061F7
:1023800029E02168DFF86C24914202D14FF400610A
:1023900021E02168DFF86024914202D15FF400114E
:1023A00019E02168DFF85424914202D15FF4001152
:1023B00011E02168DFF84824914202D15FF4001156
:1023C00009E02168DFF83C24914202D15FF400115A
:1023D00001E05FF000610840002800F02E832068D3
:1023E0000068C00640F1298320680068400340F17E
:1023F00096812068DFF8C41488425DD32068DFF836
:10240000F012884201D1202052E02068DFF8E41267
:10241000884201D120204BE02068DFF8DC1288429E
:1024200001D1202044E02068B449884201D1202015
:102430003EE020687B49884202D14FF4006037E0DB
:102440002068AA49884202D14FF4006030E0206839
:10245000AB49884202D14FF4006029E02068DFF8E0
:102460009413884202D14FF4006021E02068DFF825
:102470008813884202D15FF4001019E02068DFF869
:102480007C13884202D15FF4001011E02068DFF86D
:102490007013884202D15FF4001009E02068DFF871
:1024A0006413884202D15FF4001001E05FF0006025
:1024B000DFF8A81508600DE12068DFF810158842E4
:1024C00055D320688A49884201D120204BE02068FA
:1024D0008849884201D1202045E020688649884209
:1024E00001D120203FE020688449884201D120208A
:1024F00039E020684B49884202D14FF4006032E055
:1025000020687A49884202D14FF400602BE02068AD
:102510007B49884202D14FF4006024E02068B5492D
:10252000884202D14FF400601DE02068B249884221
:1025300002D15FF4001016E02068B049884202D151
:102540005FF400100FE02068AD49884202D15FF4CB
:10255000001008E02068AB49884202D15FF4001007
:1025600001E05FF00060DFF8D4140860B2E020689A
:10257000DFF8CC14884257D320685D49884201D1E6
:1025800020204BE020685B49884201D1202045E0B3
:1025900020685949884201D120203FE020685749EE
:1025A000884201D1202039E020681E49884202D1AA
:1025B0004FF4006032E020684C49884202D14FF469
:1025C00000602BE020684E49884202D14FF4006041
:1025D00024E020688749884202D14FF400601DE062
:1025E00020688549884202D15FF4001016E0206817
:1025F0008249884202D15FF400100FE020688049D0
:10260000884202D15FF4001008E020687D498842CA
:1026100002D15FF4001001E05FF00060DFF82414E5
:10262000086057E02860024020683149884201D1A3
:1026300020204CE020682F49884201D1202046E02C
:1026400020682D49884201D1202040E020682B4994
:10265000884201D120203AE02068DFF80414884243
:1026600002D14FF4006032E020682049884202D154
:102670004FF400602BE020682149884202D14FF4DA
:10268000006024E020685B49884202D14FF400607A
:102690001DE020685849884202D15FF4001016E01E
:1026A00020685649884202D15FF400100FE020688C
:1026B0005349884202D15FF4001008E02068514974
:1026C000884202D15FF4001001E05FF00060DFF8A3
:1026D0007813086020680068000313D4606C002839
:1026E00000F0AB812000616C8847A6E128640240BD
:1026F000106002401064024070600240706402404A
:102700008860024020680068000340F19681E06B19
:10271000002800F092812000E16B88478DE120685D
:102720000068C00505D42068006830F010002168FA
:10273000086020686149884266D32068DFF8241366
:10274000884201D1202051E02068DFF81C13884224
:1027500001D120204AE02068DFF81013884201D11F
:10276000202043E02068DFF80813884201D12020B0
:102770003CE02068DFF8E812884202D14FF40060A4
:1027800034E02068DFF8EC12884202D14FF4006098
:102790002CE02068DFF8E012884202D14FF400609C
:1027A00024E020681349884202D14FF400601DE004
:1027B00020681149884202D15FF4001016E02068B9
:1027C0000E49884202D15FF400100FE020680C49E6
:1027D000884202D15FF4001008E02068094988426D
:1027E00002D15FF4001001E05FF000609B490860D7
:1027F00015E100BF8864024040600240406402402E
:10280000A0600240A064024020687049884257D30B
:1028100020689449884201D120204BE020689249E9
:10282000884201D1202045E020689049884201D1AA
:1028300020203FE020688E49884201D1202039E0E5
:1028400020688749884202D14FF4006032E0206856
:102850008849884202D14FF400602BE02068864905
:10286000884202D14FF4006024E020688349884206
:1028700002D14FF400601DE020688149884202D1F6
:102880005FF4001016E020687E49884202D15FF4B0
:1028900000100FE020687C49884202D15FF40010EC
:1028A00008E020687949884202D15FF4001001E015
:1028B0005FF0006061490860B1E000BF5964024008
:1028C00020685F49884254D320686649884201D114
:1028D00020204BE020686449884201D1202045E057
:1028E00020686249884201D120203FE02068604989
:1028F000884201D1202039E020685949884202D11C
:102900004FF4006032E020685A49884202D14FF407
:1029100000602BE020685849884202D14FF40060E3
:1029200024E020685549884202D14FF400601DE040
:1029300020685349884202D15FF4001016E02068F5
:102940005049884202D15FF400100FE020684E49E0
:10295000884202D15FF4001008E020684B498842A9
:1029600002D15FF4001001E05FF0006035490860BB
:1029700055E020683B49884201D120204DE0206885
:102980003949884201D1202047E0206837498842F0
:1029900001D1202041E020683549884201D1202022
:1029A0003BE020682E49884202D14FF4006034E0B9
:1029B00020683049884202D14FF400602DE0206841
:1029C0002D49884204D14FF4006026E0B9600240EE
:1029D00020682A49884202D14FF400601DE0206837
:1029E0002749884202D15FF4001016E0206825498B
:1029F000884202D15FF400100FE02068224988422B
:102A000002D15FF4001008E020682049884202D11A
:102A10005FF4001001E05FF000600B490860E06CBB
:102A2000E064112084F83500002084F83400E06B65
:102A3000002802D02000E16B884710BD08640240E6
:102A4000596002400C600240086002400464024089
:102A50000064024004600240006002400C640240D6
:102A60002860024010600240106402407060024022
:102A7000706402402864024088600240886402401A
:102A80004060024040640240A0600240A0640240F6
:102A900030B40468246834F4802405682C60046829
:102AA00063608368402B04D103689A600068C1604A
:102AB00003E0036899600068C26030BC704710B4DE
:102AC00050F8041B81B102681218001D50F8043B35
:102AD000DC0744BFA9F10104E31852F8044B43F8A2
:102AE000044B091FF9D1EBE710BC7047F8B500F0B3
:102AF000BDFE00F04EFB00F0B7FB00F091FBDFF8ED
:102B0000980C006850F00200DFF88C1C0860DFF8B9
:102B1000880C006810F002000090009CDFF87C1C1C
:102B2000DFF86C0900F0EEFEDFF8741CDFF86009D6
:102B300000F0E8FE01224021DFF8540900F0E2FF36
:102B400001228021DFF8480900F0DCFFDFF8540C97
:102B500001F012F8002801D000F072FCDFF834090F
:102B600001F020FAE0A001F01DFA00F0A0FBDFF870
:102B7000280901F017FADCA001F014FA00F0CBFBF1
:102B8000DFF8180901F00EFAD7A001F00BFADFF810
:102B9000180C01F019FA002801D000F051FCDFF800
:102BA000000901F0FFF9D0A001F0FCF9DFF8FC0BFF
:102BB00001F00AFA002801D000F042FCDFF8E40836
:102BC00001F0F0F9C8A001F0EDF9DFF8DC0B01F03D
:102BD00024FF0128F9D1DFF8D40B01F01EFF0128F2
:102BE000F9D100F0D7FB00F0FBFB0022DFF8C01B9F
:102BF000DFF8C00B02F088F8DFF8BC1BDFF8B40B7D
:102C000002F09AF8DFF8B41BDFF8A80B02F0EBFA39
:102C1000DFF8A00B02F09BF8DFF8A40B01F0C2F97B
:102C2000DFF8A00B01F0BEF9DFF8940B01F0BAF960
:102C30005FF0FF34DFF8900B01210170DFF8880BA3
:102C40000121417041F288330222DFF87C1BDFF85A
:102C5000580B01F000FA0400DFF8700B01F0A2F944
:102C60002100DFF86C0B01F09DF95FF0FF349EA0AE
:102C700001F098F9DFF8500B00210170DFF8480BE4
:102C800000214170002500260027DFF83C0B0121C0
:102C90000170DFF8340B0121417041F2883000905F
:102CA0000223DFF8302BDFF8201BDFF8FC0A01F0ED
:102CB000DAFBDFF8240B01F075F9322000F011FE89
:102CC000DFF8040B03210170DFF8FC0A00214170DA
:102CD0005FF0FF30040041F2883000900223DFF8FB
:102CE000F42ADFF8E41ADFF8C00A01F0BCFB0400A4
:102CF000DFF8E80A01F056F9322000F0F2FDDFF8C3
:102D0000C80A05210170DFF8C00A1F2141705FF079
:102D1000FF30040041F2883000900223DFF8B42A2B
:102D2000DFF8A41ADFF8800A01F09DFB0400DFF849
:102D3000B00A01F037F9322000F0D3FDDFF8880A3D
:102D400007210170DFF8800A002141705FF0FF3039
:102D5000040041F2883000900223DFF8782ADFF87F
:102D6000681ADFF8440A01F07EFB0400DFF8740AF9
:102D700001F018F9322000F0B4FDDFF84C0A092107
:102D80000170DFF8440A022141705FF0FF30040057
:102D900041F2883000900223DFF8382ADFF8281A41
:102DA000DFF8040A01F05FFB0400DFF83C0A01F0E1
:102DB000F9F8322000F095FDDFF80C0A13210170BC
:102DC000DFF8040A842141705FF0FF30040041F213
:102DD000883000900223DFF8FC29DFF8EC19DFF8D7
:102DE000C80901F040FB0400DFF8000A01F0DAF83E
:102DF000322000F076FD44F2C0020221B02002F041
:102E00000EFD002801D000F01BFB44F2C001DFF8EA
:102E1000E00901F0C7F8642000F063FD4FF4804240
:102E20000821B02002F0FBFC002801D000F008FBD4
:102E30004FF48041DFF8BC0901F0B4F8642000F0E1
:102E400050FD0F220E21B02002F02EFA002801D0F2
:102E500000F0F6FA0F21DFF8A00901F0A3F86420D2
:102E600000F03FFD20A001F09DF8072003F08EF850
:102E7000FFE7DFF888090068F128FAD0F22808D0C7
:102E8000F32833D0F42800F00F81F62800F0C78033
:102E900042E1DFF86C0901F085F800F005FBDFF88E
:102EA00064190860DFF85C090068002802D500F0AA
:102EB000C7FA17E0DFF84C090068F42804D1DFF8FE
:102EC0003C09F42101600DE0DFF838090068F328BF
:102ED00004D1DFF82809F321016003E0DFF81C09C1
:102EE000F1210160C5E700BF0A0D0000DFF8D80836
:102EF00001210170DFF8D0080221417041F28830D1
:102F000000900223DFF8CC28DFF8BC18DFF898081F
:102F100001F0A9FA07E0DFF8F00800210160DFF80E
:102F2000DC08F1210160DFF8E0080068002856D1D4
:102F3000DFF8D40800680128F5D14FF48062002141
:102F4000DFF8C80803F042F841F288334FF46062BA
:102F5000DFF88018DFF8540801F06BF90020302109
:102F600021E0DFF8A828DFF86C38CB5C8354DFF869
:102F70009C2800238354DFF89428825CDFF85438BF
:102F8000CB185B78DBB212EB1312DFF88038C25437
:102F9000401C491C491C202290FBF2F303FB120346
:102FA000002B00D13031B1F5606FDADBADA000F05D
:102FB000F9FF00240FE015EB4410DFF85018415CD6
:102FC000DFF84C0800F0EEFF6D1C202DF3DBA5A010
:102FD00000F0E8FF641C202C9DDA0025F5E748E7A7
:102FE000DFF8E40701210170DFF8DC0701214170FF
:102FF00041F2883000900223DFF8D827DFF8C817A5
:10300000DFF8A40701F02FFA40F60C620021DFF888
:10301000C40702F0DBFFDFF8F00700210160DFF8F2
:10302000A80701210170DFF8A0070321417041F2D8
:10303000883000900223DFF89C27DFF88C17DFF838
:10304000680701F010FA87A000F0ACFFDFF8C407B2
:103050000B21016010E0DFF8BC070068DFF874178F
:10306000415CDFF8B40700F09DFFDFF8A8070068B7
:10307000401CDFF8A0170860DFF8980700680E28EA
:10308000E9DBDFF85007C07A0028A9D1DFF8440750
:10309000007BFF28A4D1DFF86407F4210160DFF88A
:1030A000680700210160E4E6DFF870070021016095
:1030B0001BE04022DFF8640700687021DFF8143756
:1030C00001FB003010F13C01DFF85007006840239D
:1030D000DFF8384703FB004002F082FFDFF83C07CF
:1030E0000068401CDFF834170860DFF8300700681C
:1030F0002028DEDB4FF40062DFF81017DFF8B4069B
:1031000002F07AF8DFF8AC0602F085F80400DFF888
:10311000F80600210160ACE6ABE680B502F0B3F83A
:10312000C0B2012804D1DFF8D406F62101602FE0F7
:10313000C0B202282CD1DFF8E8060021018000206F
:1031400002F0A4F8DFF8B406F1210160DFF8780698
:1031500001210170DFF870060121417041F28830D1
:1031600000900223DFF86C26DFF85C16DFF83806E3
:1031700001F079F940F60C620021DFF8580602F000
:1031800025FF072002F00BFFDFF87C06002101601D
:1031900001BD30B593B0DFF88C06006850F0805068
:1031A000DFF880160860DFF87C06006810F08050B9
:1031B0000090009CDFF87006006850F44040DFF893
:1031C00068160860DFF86006006810F44040009060
:1031D000009D012006900120079002200C905FF4D2
:1031E00080000D9019200E904FF4A8700F900220CF
:1031F00010900720119006A802F00AFF0F200190FE
:1032000002200290002003904FF4A05004904FF44D
:1032100080500590052101A803F0C0F813B030BD1F
:10322000DFF8780540210160DFF870051121416069
:10323000DFF868050221C160DFF8600501218160C7
:10324000DFF85C0580210160DFF854051121416041
:10325000DFF84C050221C160DFF8400501218160E3
:10326000704700000A0D0000DFF83805DFF8BC15D4
:103270000160DFF830055FF4E1314160DFF82405DB
:1032800000218160DFF81C050021C160DFF8140512
:1032900000210161DFF80C0500218161DFF80405E0
:1032A0000C214161DFF8FC040021C1617047DFF8A7
:1032B000F804DFF87C150160DFF8EC044FF482714C
:1032C0004160DFF8E4042021C161DFF8DC04002163
:1032D0008160DFF8D40400214161DFF8CC040021D3
:1032E0000161DFF8C40400218162DFF8BC0407211A
:1032F000C162DFF8B4040021C160DFF8AC04002132
:103300000162DFF8A4044FF400718161DFF89804D2
:10331000002141627047DFF89404DFF8181501605E
:10332000DFF8880400214160DFF880042021C161BA
:10333000DFF878044FF480618160DFF870040121C8
:103340004161DFF8680402210161DFF860040021B7
:103350008162DFF858040721C162DFF850040021C0
:10336000C160DFF8480400210162DFF840044FF437
:1033700000718161DFF8340400214162704701B5BA
:103380004FF6FF73012200A9DFF8180400F02CFCAF
:10339000009802BD10B586B0DFF8FC03006850F05D
:1033A0000800DFF8F4130860DFF8EC03006810F0A1
:1033B00008000090009CDFF8800402900020039039
:1033C000022001900320049001A9DFF8700400F0AE
:1033D00099FA00220021072002F0C5FD06B010BDB9
:1033E00010B586B0DFF8B003006850F00800DFF8D1
:1033F000A8130860DFF8A003006810F00800009030
:10340000009CDFF834040290002003900420019017
:103410000220049001A9DFF8240400F073FA0122CD
:103420000021082002F09FFD06B010BD80B50420E9
:1034300003F098F901BD80B5042003F093F901BDB4
:1034400080B5042003F08EF9642000F04AFA0420CD
:1034500003F089F9642000F044FAF2E780B580B205
:10346000022802D004280DD011E040F60262DFF8F5
:103470006413DFF8380301F0B1F9DFF88C030121A0
:10348000016004E0DFF8B80301210160FFE701BD3E
:103490000004024044A20008F4A1000868A2000849
:1034A0001CA200088CA200081CB5DFF89803407825
:1034B000302803D0342800F0C3806AE1DFF88403A9
:1034C0008078022848D1DFF87C03007900281AD1DF
:1034D000DFF8700340790002DFF868138979441837
:1034E000220092B2DFF85C038178B02002F097F9F5
:1034F000002801D0FFF7A4FFA4B22100DFF84803A1
:1035000000F050FD9BE0DFF83C030079012820D15A
:103510000020ADF806000DF10602DFF828038178DF
:10352000B02002F003FB002801D0FFF789FFC54857
:10353000BDF8061089B2090A80F80518C148BDF81F
:10354000061080F80618BDF80610C04800F02AFDE5
:1035500075E0FFF775FF72E0BA4880780E282AD12F
:10356000B848007900280FD1B64842790E21B02022
:1035700001F09AFE002801D0FFF762FFB1484179BF
:10358000B34800F00FFD5AE0AE48007901280FD192
:10359000B04A0E21B02001F0ACFF002801D0FFF7A7
:1035A0004FFFA84890F80518AB4800F0FBFC46E038
:1035B000FFF746FF43E0A348807808283FD1A148A1
:1035C0000079002816D19F48407900029D498979E9
:1035D0004418220092B29B488178B02002F01FF973
:1035E000002801D0FFF72CFFA4B221009B4800F077
:1035F000D9FC24E09348007901281ED10020ADF8C1
:10360000040001AA8F488178B02002F08FFA0028C8
:1036100001D0FFF715FF8B48BDF8041089B2090AE5
:1036200080F805188748BDF8041080F80618BDF822
:1036300004108B4800F0B6FC01E0FFF701FFA8E0A2
:1036400080488078002835D17E48407904282ED2E1
:1036500040F60C6200215C4802F0B8FC40F60C62B7
:1036600000215C4802F0B2FC574801210170564825
:1036700074494979417041F2883000900223554ADB
:103680005149494800F0EFFE002802D07FF00200C7
:1036900080E06C484079032801D1F4207AE0694841
:1036A0004079022801D1F32074E0F12072E07FF02C
:1036B00003006FE06348807801286AD06148807811
:1036C000022866D05F488078032862D05D48807801
:1036D00004285ED05B48807809285AD1594800797F
:1036E000002826D140F60C620021374802F06EFC1B
:1036F00040F60C620021374802F068FC3248132182
:10370000017031484F494979417041F28830009049
:103710000223304A2C49244800F0A5FE002802D09C
:103720007FF0040036E0474841794E4800F03AFC0B
:103730002FE044480079012828D140F60C6200218E
:10374000214802F043FC40F60C620021214802F0BF
:103750003DFC1D481221017041F288300090022387
:103760001C4A1949104800F07EFE002802D07FF064
:1037700005000FE033481749497880F805183148AB
:1037800090F80518384800F00DFC02E0FFF758FEED
:10379000FFE7002016BD000030380240B44E002084
:1037A000C84E00203C4E00209C4C0020F44C0020D1
:1037B000B80000200449002040000020040100203F
:1037C000589D00089C9D0008441F0020D4A20008BA
:1037D00004A400083811002068A10008A49E000875
:1037E000E09E00081C9F0008589F000898A1000850
:1037F000949F000834A10008FCA0000820010020CC
:10380000F4A2000824010020E44E0020502D0020E6
:1038100040A40008F04E002048A40008EC4E002010
:10382000004F002040380240007000400048004037
:10383000003C00400034014000002110000C024018
:10384000E84E002030010020E09D0008249E000882
:10385000649E000835090020D09F00080CA00008D5
:1038600048A0000884A00008C0A0000880B5234834
:1038700000684FF400710843204908601F48006841
:1038800050F480601D4908601C4800684FF4807146
:1038900008431A490860032002F061FB0F2000F082
:1038A00005F800F002F8002002BD704710B50400D2
:1038B00002F002FF4FF47A71B0FBF1F002F06BFB03
:1038C000002221005FF0FF3002F04DFB002010BD10
:1038D0000B480068401C0A490860704708480068A7
:1038E000704711B581B00024FFF7F8FF0400FFF71F
:1038F000F5FF001B01998842F9D313BD003C02403B
:10390000F44E0020F8B4002500220024002339E002
:103910000A25EDB213F00306F6B2B600B5402C430B
:103920009D08DFF8106246F82540DFF80C42246855
:1039300094434D68ED0300D51443DFF8FC512C602F
:10394000DFF8F841246894434D68AD0300D5144373
:10395000DFF8E8512C60DFF8E841246894434D68B3
:10396000ED0200D51443DFF8D8512C60DFF8D441C4
:10397000246894434D68AD0200D51443DFF8C42198
:1039800014605B1C102B80F0B280012212FA03F548
:103990000A682A40AA42F4D14C68022C02D04C6832
:1039A000122C15D1DC0810EB8404246A0F2513F0C7
:1039B0000706F6B2B600B540AC430D6913F0070632
:1039C000F6B2B600B5402C43DD0810EB85052C623D
:1039D000046803251E00F6B27600B540AC430D79AD
:1039E00015F003051E00F6B27600B5402C430460C6
:1039F0004C68012C08D04C68022C05D04C68112C66
:103A000002D04C68122C17D1846803251E00F6B230
:103A10007600B540AC43CD681E00F6B27600B540E6
:103A20002C438460446801259D40AC434D68C5F338
:103A300000159D402C434460C46803251E00F6B267
:103A40007600B540AC438D681E00F6B27600B540F6
:103A50002C43C4604C68E40093D53B4C246854F478
:103A60008044394D2C60384C246814F48044009410
:103A7000009D9C082F4E56F824400F2613F0030794
:103A8000FFB2BF00BE40B443304EB04201D100256A
:103A90003FE72F4DA84201D101253AE72D4DA8421D
:103AA00001D1022535E72C4DA84201D1032530E78D
:103AB0002A4DA84201D104252BE7294DA84201D166
:103AC000052526E7274DA84201D1062521E7264DE9
:103AD000A84201D107251CE7244DA84201D10825A1
:103AE00017E7234DA8427FF413AF092511E7F1BC76
:103AF0007047006980B2084201D0012000E0002038
:103B0000C0B27047D2B2002A02D089B2816102E00D
:103B100089B209048161704780B51649096889B284
:103B2000014205D0134980B2086080B2FFF796FCCD
:103B300001BD000008380140003C0140043C014048
:103B4000083C01400C3C0140443802400000024067
:103B50000004024000080240000C02400010024035
:103B60000014024000180240001C024000200240E5
:103B700000240240143C014010B50400002C01D187
:103B8000012030E0A0690028FFD194F83900002816
:103B900005D1002084F83800200002F0E5FD022065
:103BA00084F839002068C06830F400502168C8608B
:103BB000200000F0FFF82068006930F49040216890
:103BC00008612068406930F02A0021684861206857
:103BD000C06850F400502168C8600020E0630120F4
:103BE00084F83900002010BD70B504000D001E00DF
:103BF000002094F839100800012801D0222867D14C
:103C0000002D02D092B2002A01D1012061E094F887
:103C10003800012801D102205BE0012084F838003F
:103C20000020E06394F83900222803D1322084F880
:103C3000390002E0122084F83900A284E28403E013
:103C40002068297841606D1CE08C012826D3E08C27
:103C5000401EE084A068B0F5805F15D133000022DB
:103C60008021200000F036F8002801D0032030E049
:103C700020682988C905C90D41602069002801D143
:103C8000AD1CE1E76D1CDFE733000022802120003E
:103C900000F020F80028D3D003201AE033000022DF
:103CA0004021200000F016F8002801D0032010E089
:103CB00094F83900322803D1222084F8390002E038
:103CC000012084F83900002084F83800002000E04A
:103CD000022070BD2DE9F04104000D0090461E0049
:103CE0000027FFF7FBFD07005FFA88F8B8F1000F27
:103CF0002ED1206800682840A84258D016F1010F44
:103D0000F7D0002E04D0FFF7E9FDC01B8642F0D2A9
:103D10002068C06830F080002168C8602068C068F2
:103D200030F020002168C8602068C06830F48070DE
:103D30002168C860206840694008400021684861E7
:103D4000012084F83900002084F8380003202FE097
:103D5000206800682840A84229D116F1010FF7D049
:103D6000002E04D0FFF7BAFDC01B8642F0D22068B7
:103D7000C06830F080002168C8602068C06830F0FA
:103D800020002168C8602068C06830F48070216815
:103D9000C8602068406940084000216848610120EF
:103DA00084F83900002084F83800032000E0002067
:103DB000BDE8F08170B504000020216809690800A1
:103DC00030F44050E1680843216808612068C06809
:103DD00071490840A1682269114362691143E2698F
:103DE000114308432168C8602068406930F440707E
:103DF000A169084321684861E069B0F5004F65D1C9
:103E000020686649884203D02068654988422ED1DF
:103E100002F076FC050002F073FC192101FB05F1AC
:103E200062685200B1FBF2F16422B1FBF2F5192194
:103E3000484361684900B0FBF1F602F061FC1921CA
:103E4000484361684900B0FBF1F06421B0FBF1F038
:103E5000642101FB1060000132306421B0FBF1F0FD
:103E600010F00F0050EA05102168886093E002F01E
:103E700037FC050002F034FC192101FB05F16268F2
:103E80005200B1FBF2F16422B1FBF2F51921484373
:103E900061684900B0FBF1F602F022FC19214843A9
:103EA00061684900B0FBF1F06421B0FBF1F06421DE
:103EB00001FB1060000132306421B0FBF1F010F022
:103EC0000F0050EA05102168886064E020683349DB
:103ED000884203D02068324988422ED102F010FC7B
:103EE000050002F00DFC192101FB05F1626892004A
:103EF000B1FBF2F16422B1FBF2F51921484361688C
:103F00008900B0FBF1F602F0FBFB19214843616820
:103F10008900B0FBF1F06421B0FBF1F0642101FBFA
:103F20001060000132306421B0FBF1F010F00F009E
:103F300050EA0510216888602DE002F0D1FB0500F1
:103F400002F0CEFB192101FB05F162689200B1FB82
:103F5000F2F16422B1FBF2F519214843616889004E
:103F6000B0FBF1F602F0BCFB1921484361688900FF
:103F7000B0FBF1F06421B0FBF1F0642101FB1060B3
:103F8000000132306421B0FBF1F010F00F0050EA74
:103F900005102168886070BDF369FFFF00100140C3
:103FA000001401400EB400B582B003A9009100AB2B
:103FB00002460121034878440A3002F0C1FD06BCE4
:103FC0005DF810FBE163000010B50400002C01D186
:103FD00001203FE094F85100002805D1002084F82A
:103FE0005000200002F013FC022084F851002068E9
:103FF000006830F04000216808606068A1680843EC
:10400000E16808432169084361690843A1694FF4E5
:10401000007211400843E1690843216A0843A16A1C
:10402000084321680860A069000C10F00400616A70
:104030000843216848602068E16A01612068C0691E
:1040400030F400602168C86100206065012084F8B8
:104050005100002010BD38B504001D0094F8510037
:10406000012840F0E480002902D092B2002A01D158
:104070000120DDE094F85000012801D10220D7E0B2
:10408000012084F85000122084F85100002060655F
:104090002163A286E2860020E0640020A064002064
:1040A000A0870020E087A06AB0F5005F0BD12068F0
:1040B000006830F40050216808602068006850F4FF
:1040C000005021680860A068B0F5004F05D1206855
:1040D000006850F48040216808602068006840064D
:1040E00005D42068006850F0400021680860002274
:1040F0001021DFF8E406FFF705FDE068002830D165
:104100006068002802D0E08E012812D1206B411C8B
:10411000216321680078C860E08E401EE08608E0D8
:10412000206B411C216321680078C860E08E401E2E
:10413000E086E08E012809D32B0000220221200016
:1041400000F06AFD0028EBD0032071E0A06AB0F512
:10415000005F38D12068006850F480502168086002
:1041600031E06068002802D0E08E012814D1206878
:10417000216B0988C160206B801C2063E08E401E8B
:10418000E08609E02068216B0988C160206B801CF3
:104190002063E08E401EE086E08E012809D32B00CC
:1041A00000220221200000F037FD0028EAD0032081
:1041B0003EE0A06AB0F5005F05D12068006850F4C9
:1041C0008050216808602B0000220221200000F0AE
:1041D00023FD002805D0606D50F0200060650320AD
:1041E00026E02B0001228021200000F015FD002890
:1041F00005D0606D50F020006065032018E0A068D5
:10420000002806D12068C06800902068806800906F
:104210000098012084F85100002084F85000012209
:104220001021DFF8B405FFF76DFC002000E002204C
:1042300032BD38B504001D00002094F85130012B28
:1042400040F00F81002902D092B2002A01D1012052
:1042500008E194F85000012801D1022002E1012078
:1042600084F85000222084F8510000206065A1638A
:10427000A287E2870020A0640020E0640020A086DE
:104280000020E086A068B0F5004F05D120680068E6
:1042900030F4804023681860A06AB0F5005F0BD14D
:1042A0002068006830F400502368186020680068B7
:1042B00050F400502368186060684FF4827398428D
:1042C0000DD1A06800280AD1002084F85000009584
:1042D00013009BB20A00200000F0C5F8C2E020687D
:1042E0000068400605D42068006850F0400021684E
:1042F0000860E06800282BD108E0A06B411CA16396
:104300002168C9680170E08F401EE087E08F0228B5
:1043100009D32B0000220121200000F07DFC0028A1
:10432000EBD003209EE0A06AB0F5005F27D12068A3
:10433000006850F480502168086020E0A06B21687C
:10434000C9680180A06B801CA063E08F401EE087DD
:10435000E08F022809D32B0000220121200000F069
:104360005BFC0028EAD003207CE0A06AB0F5005F87
:1043700005D12068006850F48050216808602B0047
:1043800000220121200000F047FC002801D003207A
:1043900068E0E068002806D1A06B411CA163216899
:1043A000C968017006E0A06B2168C9680180A06B34
:1043B000801CA063E08F401EE087A06AB0F5005F1C
:1043C00013D12B0000220121200000F025FC002841
:1043D00005D0606D50F002006065032042E0206867
:1043E000C068ADF80000BDF8000060684FF482714D
:1043F00088420DD1A068B0F5004F03D0A068B0F599
:10440000806F05D12068006830F0400021680860A6
:10441000012084F8510020688068C0F3001010F07B
:104420000100A16AB1F5005F16D1002814D0606DBB
:1044300050F0020060652068006830F40050216888
:1044400008602068006850F400502168086000206F
:1044500084F85000012005E0002084F8500000207E
:1044600000E0022032BDF8B50400069D00200026C1
:1044700094F851703800012802D0222840F0A88119
:10448000002904D0002A02D09BB2002B01D10120C8
:104490009FE194F85000012801D1022099E1012008
:1044A00084F8500094F85100012802D1322084F899
:1044B000510000206065A263A387E3872163A38680
:1044C000E3860020A0640020E064A06AB0F5005FED
:1044D0000BD12068006830F4005021680860206823
:1044E000006850F4005021680860206800684006A9
:1044F00005D42068006850F0400021680860002260
:104500001021B548FFF7FEFAE068B0F5006F40F003
:1045100088806068002807D060684FF48271884204
:104520000CD1E08E012809D12068216B0988C16077
:10453000206B801C2063E08E401EE086E08E002809
:1045400028D1A06AB0F5005F05D12068006850F45A
:104550008050216808602B0000220121200000F01B
:104560005BFB002801D0032033E1A06B2168C96800
:104570000180A06B801CA063E08F401EE087CFE02D
:10458000A06B2168C9680180A06B801CA063E08FCC
:10459000401EE087E08E01282AD32B000022022152
:1045A000200000F039FB002801D0032011E1206831
:1045B000216B0988C160206B801C2063E08E401E47
:1045C000E086E08E002809D1A06AB0F5005F05D131
:1045D0002068006850F48050216808602B00002299
:1045E0000121200000F018FB0028C9D00320F0E0D2
:1045F0006068002840F094802B00002201212000F8
:1046000000F00AFB002801D00320E2E0A06B216843
:10461000C9680180A06B801CA063E08F401EE0870A
:104620007EE06068002807D060684FF4827188429D
:104630000BD1E08E012808D1206B411C2163216839
:104640000078C860E08E401EE086E08E002824D10D
:10465000A06AB0F5005F05D12068006850F4805072
:10466000216808602B0000220121200000F0D4FA0C
:10467000002801D00320ACE02068C068A16B08705E
:10468000E08F401EE0874BE0A06B411CA1632168D6
:10469000C9680170E08F401EE087E08E012829D3B1
:1046A0002B0000220221200000F0B6FA002801D0E1
:1046B00003208EE0206B411C216321680078C860D4
:1046C000E08E401EE086E08E002809D1A06AB0F599
:1046D000005F05D12068006850F4805021680860B0
:1046E0002B0000220121200000F096FA0028CBD0F8
:1046F00003206EE06068002812D12B000022012107
:10470000200000F089FA002801D0032061E0A06BAE
:10471000411CA1632168C9680170E08F401EE087D9
:10472000A06AB0F5005F13D12B0000220121200008
:1047300000F072FA002805D0606D50F0020060654C
:10474000032046E02068C068ADF80000BDF8000016
:104750002B0001228021200000F05EFA002805D005
:10476000606D50F020006065032032E0012084F885
:10477000510020688068C0F3001010F00106A06AA4
:10478000B0F5005F1AD1002E18D0606D50F0020015
:104790006065A06AB0F5005F0BD12068006830F456
:1047A0000050216808602068006850F400502168BB
:1047B0000860002084F8500001200AE0002084F8FE
:1047C0005000012210210448FFF79CF9002000E06E
:1047D0000220F2BD000000000000024010B50400FD
:1047E00094F85100012874D1002902D092B2002A15
:1047F00001D101206EE094F85000012801D102207F
:1048000068E0012084F85000222084F85100002044
:104810006065A163A287E2870020A0640020E064B5
:104820000020A0860020E086A068B0F5004F3ED1B1
:104830002068006830F4804021680860A06AB0F504
:10484000005F0BD12068006830F4005021680860D8
:104850002068006850F4005021680860606C0FF216
:1048600081310164606C0FF2B911C163606C0FF2A9
:1048700089318164E38FA26B206810F10C01606CB8
:10488000FBF7D2FC002084F8500020680068400646
:1048900005D42068006850F0400021680860206856
:1048A000406850F0010021684860002012E0A068D4
:1048B0000028C3D160684FF482739842BED10020B3
:1048C00084F8500013009BB20A00200000F003F8A7
:1048D00000E0022010BD70B50400002094F8515093
:1048E000280001280CD065684FF48276B54240F06C
:1048F0008F80A568002D40F08B80222840F08880B2
:10490000002904D0002A02D09BB2002B01D1012043
:104910007FE094F85000012801D1022079E00120C5
:1049200084F8500094F85100222802D0322084F8F4
:104930005100002060652163A386E386A263A387FC
:10494000E3870020A0640020E064A06AB0F5005F67
:104950000BD12068006830F400502168086020689E
:10496000006850F400502168086094F85100222833
:1049700008D1606C0FF269210164606C0FF2A10133
:10498000C16307E0606C0FF265210164606C0FF297
:104990001921C163606C0FF261218164E38FA26B06
:1049A000206810F10C01606CFBF73EFC2068406849
:1049B00050F0010021684860206C0021C16394F828
:1049C0005100322804D1206C0FF22D21816402E0C5
:1049D000206C00218164E38E206810F10C02216BB1
:1049E000206CFBF721FC002084F850002068006850
:1049F000400605D42068006850F040002168086037
:104A00002068406850F0020021684860002000E003
:104A1000022070BD70477047704790F85100704792
:104A200038B5846B00680068C00562D4A0680028AF
:104A300008D160684FF48271884203D1200000F0F1
:104A40005CF848E060684FF4827188420DD1A0683C
:104A5000B0F5004F03D0A068B0F5806F05D1206895
:104A6000006830F040002168086020684068400815
:104A70004000216848600020E087A06AB0F5005F30
:104A800029D10A2300220121200000F0C5F80028C6
:104A900003D0606D50F0200060652068C068ADF8FC
:104AA0000000BDF800500A2301220121200000F07F
:104AB000B3F8002803D0606D50F0200060652068D6
:104AC0008068C00607D5606D50F002006065206800
:104AD0007FF010018160012084F85100606D002892
:104AE00003D02000FEF7A7FC06E02000FFF792FFAE
:104AF00002E02000FFF78EFF31BD10B582B0040048
:104B0000A06AB0F5005F25D10A230122012120000F
:104B100000F082F800280BD10A2300220121200096
:104B200000F07AF8002803D0606D50F02000606536
:104B30002068C068ADF80000BDF8000021688968F1
:104B4000C90607D5606D50F00200606520687FF0EF
:104B5000100181600A2300220221200000F05CF88D
:104B6000002803D0606D50F0200060652068406828
:104B700030F00200216848600A23012280212000D1
:104B800000F04AF8002803D0606D50F02000606506
:104B90002068406840084000216848600020E086A6
:104BA0000020E08713BD000010B5846B006800682A
:104BB000C00510D42000FFF7A0FF012084F85100A9
:104BC000606D002803D02000FEF735FC06E02000D1
:104BD000FEF72CFC02E02000FEF728FC10BD0000D0
:104BE00080B5806BFFF717FF01BD000080B5806BBB
:104BF000FFF712FF01BD000080B5806B0021C18668
:104C00000021C187012180F85110416D51F0100140
:104C10004165FEF710FC01BD2DE9F04104000D00D7
:104C200090461E000027FEF759FE07005FFA88F83D
:104C3000B8F1000F32D1206880682840A84260D0C7
:104C400016F1010FF7D0002E04D0FEF747FEC01B6F
:104C50008642F0D22068406830F0E0002168486069
:104C60002068006830F0400021680860A06AB0F554
:104C7000005F0BD12068006830F4005021680860A4
:104C80002068006850F4005021680860012084F812
:104C90005100002084F85000032033E02068806831
:104CA0002840A8422DD116F1010FF7D0002E04D0D4
:104CB000FEF714FEC01B8642F0D22068406830F038
:104CC000E000216848602068006830F040002168FA
:104CD0000860A06AB0F5005F0BD12068006830F46E
:104CE0000050216808602068006850F40050216876
:104CF0000860012084F85100002084F8500003204F
:104D000000E00020BDE8F08180B5002801D102203C
:104D100011E0D0F81432002B02D00023C0F8143276
:104D2000002901D0C0F81012012180F8FC11027096
:104D300002F078FC002002BD0022002903D0C0F858
:104D40001412002200E002221000C0B2704780B5A9
:104D500002F0A1FC002002BD0020704710B5022423
:104D6000D0F81422002A07D0C9B2D0F81422126851
:104D70009047002800D100242000C0B210BD80B5AB
:104D8000C9B2D0F8142252689047002002BD10B575
:104D9000040004F2082002F0C5FF0120C4F8F40169
:104DA000B4F80E02C4F8F80194F8080210F01F00DD
:104DB000C0B2002803D002280DD006D311E004F2BF
:104DC0000821200002F00CFD12E004F2082120006E
:104DD00002F032FD0CE004F20821200002F053FD45
:104DE00006E094F8080210F08001200002F06FFC49
:104DF000002010BD10B5040008001100C0B200284A
:104E00002BD104F20410D4F8F421032A35D1C2685E
:104E100083689A420FD28268C368D21A826082681D
:104E2000C3689A4201D2826800E0C26892B2200050
:104E300002F0EFFF21E0D4F814020069002808D046
:104E400094F8FC01032804D12000D4F81412096955
:104E50008847200002F0E6FF0FE0D4F814128969B9
:104E600000290AD094F8FC11032906D10100C9B227
:104E70002000D4F8142292699047002010BD10B58C
:104E800004001000C9B2002956D104F21401D4F86C
:104E9000F421022A45D1CA688B689A4210D28A68E6
:104EA000CB68D21A8A608A6892B20100200002F0B0
:104EB00095FF002300220021200002F040FC30E09A
:104EC0004868CA68B0FBF2F302FB1300002817D150
:104ED0004868CA68904213D34868D4F8F8118842E9
:104EE0000ED200220021200002F078FF0020C4F83A
:104EF000F801002300220021200002F020FC10E035
:104F0000D4F81402C068002808D094F8FC010328E3
:104F100004D12000D4F81412C9688847200002F098
:104F20008CFF94F80002012815D12000FFF714FF30
:104F3000002084F800020EE0D4F814024069002832
:104F400009D094F8FC01032805D1C9B22000D4F897
:104F5000142252699047002010BD10B50400402370
:104F600000220021200002F09DFB4020C4F8100127
:104F7000402300228021200002F094FB4020206288
:104F8000012084F8FC01D4F81802002806D06168DA
:104F9000C9B22000D4F8142252689047002010BDF6
:104FA00001740020704790F8FC1180F8FD11042175
:104FB00080F8FC110020704790F8FD1180F8FC117A
:104FC0000020704780B590F8FC11032908D1D0F873
:104FD0001412C969002903D0D0F81412C96988478E
:104FE000002002BD0020704700207047002070475D
:104FF00080B5012180F8FC114168C9B2D0F81422B3
:1050000052689047002002BD70B505000024287C3E
:1050100000280ED14FF4007302228121280002F0F3
:1050200041FB4FF4007302220121280002F03AFBF9
:105030000BE0402302228121280002F033FB4023B1
:1050400002220121280002F02DFB40F61C0002F094
:10505000FFFEC5F81802D5F81802002801D1012476
:105060001EE0D5F81862D5F81C02006880470020C1
:10507000C6F814080020C6F81808287C002808D1B3
:105080004FF40073D6F804280121280002F057FBE2
:1050900006E04023D6F804280121280002F04FFB47
:1050A0002000C0B270BD10B504008121200002F0C4
:1050B00006FB0121200002F002FBD4F818020028B0
:1050C0000AD0D4F81C0240688047D4F8180202F0D5
:1050D0001DFF0020C4F81802002010BDF8B5040020
:1050E0000D00002000210026D4F818722A7812F052
:1050F0006002D2B2002A2BD0202A35D1E8880028BD
:105100001DD0287800060ED5AB88EA88390068786B
:10511000D4F81CC2DCF808C0E047EA883900200057
:1051200002F04CFE13E0687887F80008E88887F8FA
:105130000108EA883900200002F059FE07E0AB8838
:10514000002229006878D4F81C42A468A0470BE02C
:1051500068780A2802D00B2806D005E001224D49C4
:10516000200002F02BFEFFE73000C0B2F2BD0020AD
:105170007047D0F8181200207047D0F81812D0F8F5
:105180001802002804D00020C1F81408002000E014
:105190000220704738B50400D4F81852C9B2200074
:1051A00002F0D6FAC5F80C08D4F8180200280CD082
:1051B00005F60C01D5F80408D4F81C22D2689047F3
:1051C000012000F063F8002000E0022032BD202121
:1051D00001803148704720210180304870470A2102
:1051E00001802F4870470222002902D0C0F81C120B
:1051F00000221000C0B27047D0F81802C0F808189A
:1052000092B2C0F8102800207047D0F81802C0F8F9
:1052100004180020704780B5D0F81812D0F8182272
:10522000002A12D0D1F81428002A0CD10122C1F88A
:105230001428D1F810389BB2D1F80828812102F047
:1052400075FA002002E0012000E0022002BD80B5D6
:10525000D0F81812D0F81822002A12D0027C002AA6
:1052600007D14FF40073D1F80428012102F067FA46
:1052700005E04023D1F80428012102F060FA002063
:1052800000E0022002BD0748007870470549087019
:1052900070470000044F0020780000209800002094
:1052A00014010020034F0020F8B507000C00150082
:1052B00000228021DFF8C00BFEF724FC0120FEF75E
:1052C00010FB00224021DFF8B00BFEF71BFC04208E
:1052D000FEF707FB07261BE000228021DFF8980B72
:1052E000FEF710FC0120FEF7FCFA01224021DFF856
:1052F000880BFEF707FC0420FEF7F3FA002240219A
:10530000DFF8740BFEF7FEFB0420FEF7EAFA761EC8
:10531000002E0CD40120B0403900C9B20142DBD0CC
:1053200001228021DFF8500BFEF7ECFBDAE70122C7
:105330004021DFF8440BFEF7E5FB0320FEF7D1FA2E
:105340008021DFF8340BFEF7D4FB002850D1002277
:105350004021DFF8240BFEF7D5FB0320FEF7C1FA4E
:1053600007261BE000228021DFF80C0BFEF7CAFBAA
:105370000120FEF7B6FA01224021DFF8FC0AFEF711
:10538000C1FB0420FEF7ADFA00224021DFF8E80A55
:10539000FEF7B8FB0420FEF7A4FA761E002E0CD40C
:1053A0000120B0402100C9B20142DBD0012280219E
:1053B000DFF8C40AFEF7A6FBDAE701224021DFF896
:1053C000B80AFEF79FFB0320FEF78BFA8021DFF877
:1053D000A80AFEF78EFB00286DD100224021DFF8DD
:1053E000980AFEF78FFB0320FEF77BFA07262AE0D8
:1053F00001228021DFF8800AFEF784FB0122402190
:10540000DFF8740AFEF77EFB5FF0FF3070E00022E9
:105410008021DFF8640AFEF775FB0120FEF761FAD0
:1054200001224021DFF8500AFEF76CFB0420FEF752
:1054300058FA00224021DFF8400AFEF763FB0420FF
:10544000FEF74FFA761E002E0BD4EDB255FA06F099
:10545000C007DCD501228021DFF81C0AFEF752FBD1
:10546000DBE701224021DFF8100AFEF74BFB0320A7
:10547000FEF737FA8021DFF8000AFEF73AFB002832
:1054800028D100224021DFF8F009FEF73BFB032082
:10549000FEF727FA01224021DFF8DC09FEF732FB94
:1054A0000120FEF71EFA01228021DFF8CC09FEF769
:1054B00029FB00201CE001228021DFF8BC09FEF757
:1054C00021FB01224021DFF8B009FEF71BFB5FF052
:1054D000FF300DE001228021DFF89C09FEF712FB6E
:1054E00001224021DFF89009FEF70CFB5FF0FF304E
:1054F000F2BDF8B504000D00160000228021DFF88F
:105500007809FEF7FFFA0120FEF7EBF900224021AF
:10551000DFF86409FEF7F6FA0320FEF7E2F9072741
:105520001BE000228021DFF85009FEF7EBFA012092
:10553000FEF7D7F901224021DFF83C09FEF7E2FA35
:105540000320FEF7CEF900224021DFF82C09FEF7F8
:10555000D9FA0220FEF7C5F97F1E002F0CD40120D6
:10556000B8402100C9B20142DBD001228021DFF81E
:105570000809FEF7C7FADAE701224021DFF8F80848
:10558000FEF7C0FA0320FEF7ACF98021DFF8E80847
:10559000FEF7AFFA002875D100224021DFF8D808C5
:1055A000FEF7B0FA0220FEF79CF907271BE0002265
:1055B0008021DFF8C408FEF7A5FA0120FEF791F973
:1055C00001224021DFF8B008FEF79CFA0320FEF725
:1055D00088F900224021DFF8A008FEF793FA0220A4
:1055E000FEF77FF97F1E002F0CD40120B840290060
:1055F000C9B20142DBD001228021DFF87C08FEF72E
:1056000081FADAE701224021DFF86C08FEF77AFA26
:105610000320FEF766F98021DFF85C08FEF769FADF
:10562000002840F0858000224021DFF84C08FEF77A
:1056300069FA0220FEF755F901228021DFF83808C7
:10564000FEF760FA0120FEF74CF901224021DFF855
:105650002808FEF757FA0220FEF743F900228021BE
:10566000DFF81408FEF74EFA0220FEF73AF900229E
:105670004021DFF80408FEF745FA0320FEF731F970
:1056800007272AE001228021DFF8EC07FEF73AFA2B
:1056900001224021DFF8E007FEF734FA5FF0FF3027
:1056A000BCE000228021DFF8D007FEF72BFA0120B2
:1056B000FEF717F901224021DFF8BC07FEF722FAB6
:1056C0000320FEF70EF900224021DFF8AC07FEF7B9
:1056D00019FA0220FEF705F97F1E002F0DD4E4B25F
:1056E000601C0121B94080B20842DAD00122802139
:1056F000DFF88407FEF706FAD9E701224021DFF838
:105700007807FEF7FFF90320FEF7EBF88021DFF8BA
:105710006807FEF7EEF900286FD100224021DFF87C
:105720005807FEF7EFF90320FEF7DBF807272DE017
:1057300001224021DFF84007FEF7E4F90520FEF7DB
:10574000D0F801228021DFF83007FEF7DBF95FF0A7
:10575000FF3063E001224021DFF81C07FEF7D2F999
:105760000320FEF7BEF834788021DFF80C07FEF73F
:10577000C0F9B8402043307000224021DFF8F8061D
:10578000FEF7C0F90320FEF7ACF87F1E002FE1D52D
:1057900001228021DFF8E006FEF7B4F90120FEF7D0
:1057A000A0F801224021DFF8D006FEF7ABF9032074
:1057B000FEF797F800224021DFF8BC06FEF7A2F9B9
:1057C0000120FEF78EF800228021DFF8AC06FEF7FC
:1057D00099F90320FEF785F801224021DFF89806A9
:1057E000FEF790F90120FEF77CF801228021DFF816
:1057F0008806FEF787F9002010E001224021DFF83B
:105800007806FEF77FF90120FEF76BF80122802170
:10581000DFF86406FEF776F95FF0FF30F2BDF8B509
:1058200007000C00150001228021DFF84C06FEF76E
:1058300069F901224021DFF84006FEF763F90A20EA
:10584000FEF74FF800228021DFF82C06FEF75AF908
:105850000120FEF746F800224021DFF81C06FEF783
:1058600051F90420FEF73DF807261BE000228021B5
:10587000DFF80406FEF746F90120FEF732F80122B0
:105880004021DFF8F405FEF73DF90320FEF729F883
:1058900000224021DFF8E005FEF734F90220FEF790
:1058A00020F8761E002E0CD40120B0403900C9B279
:1058B0000142DBD001228021DFF8BC05FEF722F98E
:1058C000DAE701224021DFF8B005FEF71BF90220DC
:1058D000FEF707F88021DFF8A005FEF70AF9002897
:1058E00050D100224021DFF89005FEF70BF902208D
:1058F000FDF7F7FF07261BE000228021DFF878057F
:10590000FEF700F90120FDF7ECFF01224021DFF84E
:105910006805FEF7F7F80320FDF7E3FF00224021BA
:10592000DFF85405FEF7EEF80220FDF7DAFF761EE9
:10593000002E0CD40120B0402100C9B20142DBD0BE
:1059400001228021DFF83005FEF7DCF8DAE70122DA
:105950004021DFF82405FEF7D5F80220FDF7C1FF4E
:105960008021DFF81405FEF7C4F800285ED100227C
:105970004021DFF80405FEF7C5F80220FDF7B1FF6E
:105980000F262AE001228021DFF8EC04FEF7BAF8A6
:1059900001224021DFF8E004FEF7B4F85FF0FF30A9
:1059A000C3E000228021DFF8D004FEF7ABF801202D
:1059B000FDF797FF01224021DFF8BC04FEF7A2F8B3
:1059C0000320FDF78EFF00224021DFF8AC04FEF734
:1059D00099F80220FDF785FF761E082E0BDBADB28D
:1059E00055FA06F0C007DCD501228021DFF88804D3
:1059F000FEF788F8DBE701224021DFF87C04FEF7A0
:105A000081F80220FDF76DFF8021DFF86C04FEF7BE
:105A100070F800286DD100224021DFF85C04FEF709
:105A200071F80220FDF75DFF07262AE001228021A0
:105A3000DFF84404FEF766F801224021DFF838045D
:105A4000FEF760F85FF0FF306FE000228021DFF8A2
:105A50002804FEF757F80120FDF743FF01224021FB
:105A6000DFF81404FEF74EF80320FDF73AFF00229A
:105A70004021DFF80404FEF745F80220FDF731FF6E
:105A8000761E002E0BD4ADB255FA06F0C007DCD559
:105A900001228021DFF8E003FEF734F8DBE7012282
:105AA0004021DFF8D403FEF72DF80220FDF719FF9F
:105AB0008021DFF8C403FEF71CF8002828D100225B
:105AC0004021DFF8B403FEF71DF80220FDF709FFBF
:105AD00001224021DFF8A003FEF714F80120FDF7B2
