:020000040800F2
:1000000028090020BD9900089596000897960008D9
:10001000999600089B9600089D9600080000000035
:100020000000000000000000000000009F96000893
:10003000A196000800000000A3960008A5960008FD
:10004000F5990008F9990008FD990008019A00083F
:10005000059A0008099A0008B1960008BB960008A6
:10006000C59600080D9A0008119A0008159A000814
:10007000199A00081D9A0008219A0008259A00087C
:10008000299A00082D9A0008319A0008359A00082C
:10009000399A00083D9A0008419A0008459A0008DC
:1000A000499A00084D9A0008519A0008559A00088C
:1000B000599A00086F9700085D9A0008619A000835
:1000C000659A0008699A00086D9A0008719A0008FC
:1000D000759A0008799A00087D9A00086B970008C5
:1000E000CF960008819A0008E5960008859A0008D6
:1000F000899A00088D9A0008919A0008959A00083C
:10010000999A00089D9A0008A19A0008A59A0008EB
:10011000A99A0008AD9A0008B19A0008B59A00089B
:10012000539700085F970008B99A0008BD9A000825
:10013000C19A0008C59A0008C99A0008CD9A00081B
:10014000D19A0008D59A0008D99A0008DB960008D1
:10015000DD9A0008E19A0008E59A0008E99A00088B
:10016000ED9A0008F19A0008F59A0008F99A00083B
:10017000FD9A0008019B0008059B00080000000094
:10018000099B00080D9B00086D970008119B000853
:10019000159B0008199B00081D9B0008219B000867
:1001A000259B0008299B00082D9B000800210028A2
:1001B00001D1012034E0416A0029022180F8351084
:1001C00001680968174A1140426883681A43C36886
:1001D0001A4303691A4343691A4383691A43C3697B
:1001E0001A43036A1A431143426A042A03D1C26ABA
:1001F000036B1A4311430268116001684969C90819
:10020000C900426A1143426A042A01D1826A114339
:10021000026851610021C164012180F8351000207D
:10022000704700003F8010F010B504002068DFF830
:10023000F01B884262D3DFF8EC0B00682168DFF81E
:10024000E82B914201D1082156E02168DFF8DC2B30
:10025000914201D108214FE02168DFF8D42B91426F
:1002600001D1082148E02168DFF8C82B914201D173
:10027000082141E02168DFF8C02B914202D14FF400
:10028000007139E02168DFF8B42B914202D14FF4BC
:10029000007131E02168DFF8A82B914202D14FF4C0
:1002A000007129E02168DFF8DC2B914202D14FF484
:1002B000007121E02168DFF8D02B914202D15FF478
:1002C000002119E02168DFF8C42B914202D15FF4CC
:1002D000002111E02168DFF8B82B914202D15FF4D0
:1002E000002109E02168DFF8AC2B914202D15FF4D4
:1002F000002101E05FF00071084031E12068DFF883
:10030000981B884262D3DFF8940B00682168DFF8FD
:10031000182B914201D1082156E02168DFF80C2BFF
:10032000914201D108214FE02168DFF8042B91426E
:1003300001D1082148E02168DFF8F82A914201D173
:10034000082141E02168DFF8F02A914202D14FF400
:10035000007139E02168DFF8E42A914202D14FF4BC
:10036000007131E02168DFF8D82A914202D14FF4C0
:10037000007129E02168DFF80C2B914202D14FF483
:10038000007121E02168DFF8002B914202D15FF477
:10039000002119E02168DFF8F42A914202D15FF4CC
:1003A000002111E02168DFF8E82A914202D15FF4D0
:1003B000002109E02168DFF8DC2A914202D15FF4D4
:1003C000002101E05FF000710840C9E02068DFF81B
:1003D000D01A884262D3DFF8CC0A00682168DFF8BF
:1003E000482A914201D1082156E02168DFF83C2AD1
:1003F000914201D108214FE02168DFF8342A91426F
:1004000001D1082148E02168DFF8282A914201D172
:10041000082141E02168DFF8202A914202D14FF4FF
:10042000007139E02168DFF8142A914202D14FF4BB
:10043000007131E02168DFF8082A914202D14FF4BF
:10044000007129E02168DFF83C2A914202D14FF483
:10045000007121E02168DFF8302A914202D15FF477
:10046000002119E02168DFF8242A914202D15FF4CB
:10047000002111E02168DFF8182A914202D15FF4CF
:10048000002109E02168DFF80C2A914202D15FF4D3
:10049000002101E05FF00071084061E0DFF8080A28
:1004A00000682168DFF88029914201D1082156E0D7
:1004B0002168DFF87829914201D108214FE02168B5
:1004C000DFF86C29914201D1082148E02168DFF86A
:1004D0006429914201D1082141E02168DFF85829BF
:1004E000914202D14FF4007139E02168DFF84C29C4
:1004F000914202D14FF4007131E02168DFF84029C8
:10050000914202D14FF4007129E02168DFF874298B
:10051000914202D14FF4007121E02168DFF868298F
:10052000914202D15FF4002119E02168DFF85C29D3
:10053000914202D15FF4002111E02168DFF85029D7
:10054000914202D15FF4002109E02168DFF84429DB
:10055000914202D15FF4002101E05FF00071084098
:10056000002800F0B18120680068400740F1AC81AC
:100570002068006830F00400216808602068DFF817
:10058000A018884261D32068DFF89C18884201D106
:10059000082056E02068DFF89418884201D108202E
:1005A0004FE02068DFF88818884201D1082048E031
:1005B0002068DFF88018884201D1082041E02068D7
:1005C000DFF87418884202D14FF4007039E02068D7
:1005D000DFF86818884202D14FF4007031E02068DB
:1005E000DFF85C18884202D14FF4007029E02068DF
:1005F000DFF89018884202D14FF4007021E02068A3
:10060000DFF88418884202D15FF4002019E02068E6
:10061000DFF87818884202D15FF4002011E02068EA
:10062000DFF86C18884202D15FF4002009E02068EE
:10063000DFF86018884202D15FF4002001E05FF02B
:100640000070DFF8681808602EE12068DFF84818AD
:10065000884261D32068DFF8D017884201D1082092
:1006600056E02068DFF8C417884201D108204FE027
:100670002068DFF8BC17884201D1082048E02068D4
:10068000DFF8B017884201D1082041E02068DFF888
:10069000A817884202D14FF4007039E02068DFF8D3
:1006A0009C17884202D14FF4007031E02068DFF8D7
:1006B0009017884202D14FF4007029E02068DFF8DB
:1006C000C417884202D14FF4007021E02068DFF89F
:1006D000B817884202D15FF4002019E02068DFF8E3
:1006E000AC17884202D15FF4002011E02068DFF8E7
:1006F000A017884202D15FF4002009E02068DFF8EB
:100700009417884202D15FF4002001E05FF000708E
:10071000DFF89C170860C7E02068DFF8841788427C
:1007200061D32068DFF80017884201D1082056E025
:100730002068DFF8F816884201D108204FE02068D1
:10074000DFF8EC16884201D1082048E02068DFF885
:10075000E416884201D1082041E02068DFF8D8166D
:10076000884202D14FF4007039E02068DFF8CC16DF
:10077000884202D14FF4007031E02068DFF8C016E3
:10078000884202D14FF4007029E02068DFF8F416A7
:10079000884202D14FF4007021E02068DFF8E816AB
:1007A000884202D15FF4002019E02068DFF8DC16EF
:1007B000884202D15FF4002011E02068DFF8D016F3
:1007C000884202D15FF4002009E02068DFF8C416F7
:1007D000884202D15FF4002001E05FF00070DFF892
:1007E000D416086060E02068DFF83C16884201D12A
:1007F000082056E02068DFF83416884201D108202E
:100800004FE02068DFF82816884201D1082048E030
:100810002068DFF82016884201D1082041E02068D6
:10082000DFF81416884202D14FF4007039E02068D6
:10083000DFF80816884202D14FF4007031E02068DA
:10084000DFF8FC15884202D14FF4007029E02068DF
:10085000DFF83016884202D14FF4007021E02068A2
:10086000DFF82416884202D15FF4002019E02068E6
:10087000DFF81816884202D15FF4002011E02068EA
:10088000DFF80C16884202D15FF4002009E02068EE
:10089000DFF80016884202D15FF4002001E05FF02B
:1008A0000070DFF8C81B0860E06C50F00100E064E5
:1008B000042084F83500002084F83400A06C00285F
:1008C00002D02000A16C88472068DFF854158842C8
:1008D00062D3DFF8500500682168DFF84C259142AB
:1008E00002D1DFF88C1B55E02168DFF840259142EA
:1008F00002D1DFF87C1B4DE02168DFF834259142FE
:1009000002D1DFF86C1B45E02168DFF82825914211
:1009100002D1DFF85C1B3DE02168DFF81C25914225
:1009200001D1402136E02168DFF81025914201D144
:1009300040212FE02168DFF80825914201D14021B4
:1009400028E02168DFF83C25914201D1402121E0D7
:100950002168DFF83425914202D15FF4803119E03B
:100960002168DFF82825914202D15FF4803111E03F
:100970002168DFF81C25914202D15FF4803109E043
:100980002168DFF81025914202D15FF4803101E047
:100990005FF4800108402AE12068DFF8FC148842F7
:1009A00062D3DFF8F80400682168DFF87C24914204
:1009B00002D1DFF8BC1A55E02168DFF870249142BB
:1009C00002D1DFF8AC1A4DE02168DFF864249142CF
:1009D00002D1DFF89C1A45E02168DFF858249142E3
:1009E00002D1DFF88C1A3DE02168DFF84C249142F7
:1009F00001D1402136E02168DFF84024914201D145
:100A000040212FE02168DFF83824914201D14021B4
:100A100028E02168DFF86C24914201D1402121E0D7
:100A20002168DFF86424914202D15FF4803119E03B
:100A30002168DFF85824914202D15FF4803111E03F
:100A40002168DFF84C24914202D15FF4803109E043
:100A50002168DFF84024914202D15FF4803101E047
:100A60005FF480010840C2E02068DFF83414884257
:100A700062D3DFF8300400682168DFF8AC239142CC
:100A800002D1DFF8EC1955E02168DFF8A02391428C
:100A900002D1DFF8DC194DE02168DFF894239142A0
:100AA00002D1DFF8CC1945E02168DFF888239142B4
:100AB00002D1DFF8BC193DE02168DFF87C239142C8
:100AC00001D1402136E02168DFF87023914201D145
:100AD00040212FE02168DFF86823914201D14021B5
:100AE00028E02168DFF89C23914201D1402121E0D8
:100AF0002168DFF89423914202D15FF4803119E03C
:100B00002168DFF88823914202D15FF4803111E03F
:100B10002168DFF87C23914202D15FF4803109E043
:100B20002168DFF87023914202D15FF4803101E047
:100B30005FF4800108405AE0DFF86C030068216828
:100B4000DFF8E422914202D1DFF824194EE0216857
:100B5000DFF8D822914202D1DFF8141946E021686B
:100B6000DFF8CC22914202D1DFF804193EE021687F
:100B7000B04A914202D1DFF8F81837E02168AE4A56
:100B8000914201D1402131E02168AC4A914201D12A
:100B900040212BE02168AA4A914201D1402125E061
:100BA0002168DFF8E022914201D140211EE0216856
:100BB000DFF8D422914202D15FF4803116E021683F
:100BC000B24A914202D15FF480310FE02168B04A0D
:100BD000914202D15FF4803108E02168AD4A914230
:100BE00002D15FF4803101E05FF480010840002809
:100BF00000F0B38120684069000640F1AE812068B2
:100C0000406930F08000216848612068844988424A
:100C100054D320688449884202D1DFF854084AE05E
:100C200020688249884202D1DFF8440843E0206806
:100C30007F49884202D1DFF838083CE020687D49CE
:100C4000884202D1DFF8280835E020687A498842D6
:100C500001D140202FE020687849884201D140200E
:100C600029E020687649884201D1402023E02068AD
:100C70008449884201D140201DE020688249884291
:100C800002D15FF4803016E020688049884202D1AA
:100C90005FF480300FE020687D49884202D15FF424
:100CA000803008E020687B49884202D15FF48030C0
:100CB00001E05FF480007D4908603EE120687649EC
:100CC000884254D320685849884202D1DFF8A007EF
:100CD0004AE020685549884202D1DFF8940743E092
:100CE00020685349884202D1DFF884073CE020683D
:100CF0005049884202D1DFF8780735E020684E4934
:100D0000884201D140202FE020684C49884201D11F
:100D1000402029E020684A49884201D1402023E050
:100D200020685849884201D140201DE0206856497A
:100D3000884202D15FF4803016E02068534988422F
:100D400002D15FF480300FE020685149884202D11F
:100D50005FF4803008E020684E49884202D15FF499
:100D6000803001E05FF4800051490860E5E02068D0
:100D70004B49884266D320682B49884202D1DFF86C
:100D8000F0064AE020682949884202D1DFF8E006EF
:100D900043E020682649884202D1DFF8D4063CE0CF
:100DA00020682449884202D1DFF8C40635E0206873
:100DB0002149884201D140202FE020681F49884204
:100DC00001D1402029E020681D49884201D14020FE
:100DD00023E020682B49884201D140201DE0206893
:100DE0002949884202D15FF4803016E02068274903
:100DF000884202D15FF480300FE0206824498842A5
:100E000002D15FF4803008E020682249884202D194
:100E10005FF4803001E05FF48000264908608CE0D8
:100E200059640240046402401060024010640240B1
:100E300070600240706402402860024028640240F2
:100E4000886002402068DFF8041C884202D1DFF885
:100E500020066FE02068DFF8F81B884202D1DFF837
:100E6000100667E02068DFF8EC1B884202D1DFF84B
:100E700000065FE02068DFF8E01B88421CD1DFF845
:100E8000F00557E088640240406002404064024040
:100E9000A0600240A0640240B960024000640240C9
:100EA0005960024004600240006002400C6402404D
:100EB000086402400C6002402068DFF8A01B8842F2
:100EC00001D1402036E02068DFF8941B884201D130
:100ED00040202FE02068DFF80C1C884201D1402020
:100EE00028E02068DFF8001C884201D1402021E082
:100EF0002068DFF8F81B884202D15FF4803019E0E7
:100F00002068DFF8EC1B884202D15FF4803011E0EA
:100F10002068DFF8E01B884202D15FF4803009E0EE
:100F20002068DFF8D41B884202D15FF4803001E0F2
:100F30005FF48000DFF834150860E06C50F00200C8
:100F4000E064042084F83500002084F83400A06CAC
:100F5000002802D02000A16C88472068DFF89C1B85
:100F6000884266D3DFF8980B00682168DFF8DC2A36
:100F7000914202D1DFF88C1B59E02168DFF8D02ABA
:100F8000914202D1DFF87C1B51E02168DFF8C42ACE
:100F9000914202D1DFF86C1B49E02168DFF8B82AE2
:100FA000914202D1DFF85C1B41E02168DFF8AC2AF6
:100FB000914202D14FF4807139E02168DFF8A02A14
:100FC000914202D14FF4807131E02168DFF8142B97
:100FD000914202D14FF4807129E02168DFF8082B9B
:100FE000914202D14FF4807121E02168DFF8FC2AA0
:100FF000914202D15FF4802119E02168DFF8F02AE4
:10100000914202D15FF4802111E02168DFF8E42AE7
:10101000914202D15FF4802109E02168DFF8D82AEB
:10102000914202D15FF4802101E05FF080710840BD
:101030003DE12068DFF89C1B884266D3DFF8980BFF
:1010400000682168DFF8042A914202D1DFF8B41A5F
:1010500059E02168DFF8F829914202D1DFF8A41A9B
:1010600051E02168DFF8EC29914202D1DFF8941AAF
:1010700049E02168DFF8E029914202D1DFF8841AC3
:1010800041E02168DFF8D429914202D14FF4807108
:1010900039E02168DFF8C829914202D14FF480710C
:1010A00031E02168DFF83C2A914202D14FF480718F
:1010B00029E02168DFF8302A914202D14FF4807193
:1010C00021E02168DFF8242A914202D15FF48021D7
:1010D00019E02168DFF8182A914202D15FF48021DB
:1010E00011E02168DFF80C2A914202D15FF48021DF
:1010F00009E02168DFF8002A914202D15FF48021E3
:1011000001E05FF080710840D1E02068DFF89C1BAF
:10111000884266D3DFF8980B00682168DFF82C2935
:10112000914202D1DFF8DC1959E02168DFF820296B
:10113000914202D1DFF8CC1951E02168DFF814297F
:10114000914202D1DFF8BC1949E02168DFF8082993
:10115000914202D1DFF8AC1941E02168DFF8FC28A8
:10116000914202D14FF4807139E02168DFF8F02814
:10117000914202D14FF4807131E02168DFF8642997
:10118000914202D14FF4807129E02168DFF858299B
:10119000914202D14FF4807121E02168DFF84C299F
:1011A000914202D15FF4802119E02168DFF84029E3
:1011B000914202D15FF4802111E02168DFF83429E7
:1011C000914202D15FF4802109E02168DFF82829EB
:1011D000914202D15FF4802101E05FF0807108400C
:1011E00065E0DFF8D00A00682168DFF860289142E6
:1011F00002D1DFF8101959E02168DFF85428914234
:1012000002D1DFF8001951E02168DFF84828914247
:1012100002D1DFF8F01849E02168DFF83C2891425C
:1012200002D1DFF8E01841E02168DFF83028914270
:1012300002D14FF4807139E02168DFF8242891420F
:1012400002D14FF4807131E02168DFF89828914293
:1012500002D14FF4807129E02168DFF88C28914297
:1012600002D14FF4807121E02168DFF8802891429B
:1012700002D15FF4802119E02168DFF874289142DF
:1012800002D15FF4802111E02168DFF868289142E3
:1012900002D15FF4802109E02168DFF85C289142E7
:1012A00002D15FF4802101E05FF0807108400028E6
:1012B00000F0C68120680068800740F1C181206885
:1012C000006830F00200216808602068DFF82C1800
:1012D000884265D32068DFF87417884202D1DFF8AE
:1012E000240859E02068DFF86817884202D1DFF847
:1012F000140851E02068DFF85C17884202D1DFF85B
:10130000040849E02068DFF85017884202D1DFF86E
:10131000F40741E02068DFF84417884202D14FF417
:10132000807039E02068DFF83817884202D14FF426
:10133000807031E02068DFF8AC17884202D14FF4AA
:10134000807029E02068DFF8A017884202D14FF4AE
:10135000807021E02068DFF89417884202D15FF4A2
:10136000802019E02068DFF88817884202D15FF4F6
:10137000802011E02068DFF87C17884202D15FF4FA
:10138000802009E02068DFF87017884202D15FF4FE
:10139000802001E05FF08070DFF8D01A08603FE144
:1013A0002068DFF8301888426AD32068DFF89C167E
:1013B000884202D1DFF84C075EE02068DFF8901623
:1013C000884202D1DFF83C0756E02068DFF8841637
:1013D000884202D1DFF82C074EE02068DFF878164B
:1013E000884202D1DFF81C0746E02068DFF86C165F
:1013F000884202D14FF480703EE02068DFF860162A
:10140000884202D14FF4807036E02068DFF8D416AD
:10141000884202D14FF480702EE02068DFF8C816B1
:10142000884202D14FF4807026E02068DFF8BC16B5
:10143000884202D15FF480201EE02068DFF8B016F9
:10144000884202D15FF4802016E02068DFF8A416FD
:10145000884202D15FF480200EE02068DFF8981601
:10146000884207D15FF4802006E000BF0860024098
:10147000010080005FF08070DFF8F4190860CFE0B1
:101480002068DFF82818884265D32068DFF8BC158B
:10149000884202D1DFF86C0659E02068DFF8B01509
:1014A000884202D1DFF85C0651E02068DFF8A4151D
:1014B000884202D1DFF84C0649E02068DFF8981531
:1014C000884202D1DFF83C0641E02068DFF88C1545
:1014D000884202D14FF4807039E02068DFF880152F
:1014E000884202D14FF4807031E02068DFF8F415B3
:1014F000884202D14FF4807029E02068DFF8E815B7
:10150000884202D14FF4807021E02068DFF8DC15BA
:10151000884202D15FF4802019E02068DFF8D015FE
:10152000884202D15FF4802011E02068DFF8C41502
:10153000884202D15FF4802009E02068DFF8B81506
:10154000884202D15FF4802001E05FF08070DFF814
:101550002419086064E02068DFF8F014884202D1A2
:10156000DFF8A00559E02068DFF8E414884202D1D2
:10157000DFF8900551E02068DFF8D814884202D1E6
:10158000DFF8800549E02068DFF8CC14884202D1FA
:10159000DFF8700541E02068DFF8C014884202D10E
:1015A0004FF4807039E02068DFF8B414884202D12B
:1015B0004FF4807031E02068DFF82815884202D1AE
:1015C0004FF4807029E02068DFF81C15884202D1B2
:1015D0004FF4807021E02068DFF81015884202D1B6
:1015E0005FF4802019E02068DFF80415884202D1FA
:1015F0005FF4802011E02068DFF8F814884202D1FF
:101600005FF4802009E02068DFF8EC14884202D102
:101610005FF4802001E05FF08070DFF85C18086004
:10162000E06C50F00400E064042084F835000020F1
:1016300084F83400A06C002802D02000A16C8847F8
:101640002068DFF8B814884262D3DFF8B404006879
:101650002168DFF8F823914201D1102156E021687A
:10166000DFF8EC23914201D110214FE02168DFF82F
:10167000E423914201D1102148E02168DFF8D8230A
:10168000914201D1102141E02168DFF8D02391423D
:1016900002D14FF4806139E02168DFF8C423914220
:1016A00002D14FF4806131E02168DFF838249142A3
:1016B00002D14FF4806129E02168DFF82C249142A7
:1016C00002D14FF4806121E02168DFF820249142AB
:1016D00002D15FF4801119E02168DFF814249142EF
:1016E00002D15FF4801111E02168DFF808249142F3
:1016F00002D15FF4801109E02168DFF8FC239142F8
:1017000002D15FF4801101E05FF08061084019E1CF
:101710002068DFF8C014884262D3DFF8BC04006898
:101720002168DFF82823914201D1102156E0216879
:10173000DFF81C23914201D110214FE02168DFF82E
:101740001423914201D1102148E02168DFF80823D9
:10175000914201D1102141E02168DFF8002391423C
:1017600002D14FF4806139E02168DFF8F422914220
:1017700002D14FF4806131E02168DFF868239142A3
:1017800002D14FF4806129E02168DFF85C239142A7
:1017900002D14FF4806121E02168DFF850239142AB
:1017A00002D15FF4801119E02168DFF844239142EF
:1017B00002D15FF4801111E02168DFF838239142F3
:1017C00002D15FF4801109E02168DFF82C239142F7
:1017D00002D15FF4801101E05FF080610840B1E068
:1017E0002068DFF8C814884256D3DFF8C4040068C4
:1017F0002168964A914201D110214BE02168944A18
:10180000914201D1102145E02168924A914201D1D3
:1018100010213FE02168904A914201D1102139E026
:1018200021688E4A914202D14FF4806132E02168F2
:101830008B4A914202D14FF480612BE02168A94A82
:10184000914202D14FF4806124E02168A64A91427E
:1018500002D14FF480611DE02168A44A914202D177
:101860005FF4801116E02168A14A914202D15FF431
:1018700080110FE021689F4A914202D15FF48011EC
:1018800008E021689C4A914202D15FF4801101E096
:101890005FF08061084055E0DFF8180400682168B7
:1018A0006A4A914201D110214BE02168684A914275
:1018B00001D1102145E02168664A914201D11021F1
:1018C0003FE02168644A914201D1102139E021684A
:1018D000624A914202D14FF4806132E02168604A4D
:1018E000914202D14FF480612BE021687D4A914200
:1018F00002D14FF4806124E021687B4A914202D1F9
:101900004FF480611DE02168784A914202D15FF472
:10191000801116E02168764A914202D15FF480116D
:101920000FE02168734A914202D15FF4801108E010
:101930002168714A914202D15FF4801101E05FF0A9
:1019400080610840002800F070832068006800076C
:1019500040F16B8320680068400340F1B681206845
:101960006649884255D320683849884201D1102001
:101970004BE020683649884201D1102045E02068BC
:101980003449884201D110203FE020683249884222
:1019900001D1102039E020683049884202D14FF44B
:1019A000806032E020682E49884202D14FF4806086
:1019B0002BE020684B49884202D14FF4806024E03C
:1019C00020684949884202D14FF480601DE02068B8
:1019D0004649884202D15FF4801016E020684449ED
:1019E000884202D15FF480100FE0206841498842AC
:1019F00002D15FF4801008E020683F49884202D19C
:101A00005FF4801001E05FF08060DFF86014086030
:101A100044E120686F49884276D320680B498842A8
:101A200001D110205AE020680949884201D11020D4
:101A300054E020680749884201D110204EE0206818
:101A4000054988420ED1102048E000BF10600240D6
:101A500010640240706002407064024028600240DE
:101A6000286402402068DFF8401B884202D14FF40E
:101A7000806033E02068DFF8F81B884202D14FF421
:101A800080602BE020681749884202D14FF48060C3
:101A900024E020681449884202D14FF480601DE0A0
:101AA00020681249884202D15FF4801016E0206855
:101AB0000F49884202D15FF480100FE020680D4981
:101AC000884202D15FF4801008E020680A49884209
:101AD00002D15FF4801001E05FF08060DFF89013C6
:101AE0000860DBE088600240886402404060024099
:101AF00040640240A0600240A06402405964024079
:101B0000046402400400800020686849884265D36C
:101B10002068DFF8601B884201D1102056E0206861
:101B2000DFF8541B884201D110204FE02068DFF815
:101B30004C1B884201D1102048E02068DFF8401B90
:101B4000884201D1102041E02068DFF85C1A884209
:101B500002D14FF4806039E02068DFF8141B88421E
:101B600002D14FF4806031E02068DFF8181B884212
:101B700002D14FF4806029E02068DFF8FC1B884226
:101B800002D14FF4806021E02068DFF8F01B88422A
:101B900002D15FF4801019E02068DFF8E41B88426E
:101BA00002D15FF4801011E02068DFF8D81B884272
:101BB00002D15FF4801009E02068DFF8CC1B884276
:101BC00002D15FF4801001E05FF08060A9490860F5
:101BD00064E000BFB9600240006402402068DFF8A2
:101BE000941A884201D1102056E02068DFF8881A44
:101BF000884201D110204FE02068DFF8801A884227
:101C000001D1102048E02068DFF8741A884201D121
:101C1000102041E02068DFF89019884202D14FF48B
:101C2000806039E02068DFF8481A884202D14FF41A
:101C3000806031E02068DFF84C1A884202D14FF40E
:101C4000806029E02068DFF8301B884202D14FF421
:101C5000806021E02068DFF8241B884202D15FF415
:101C6000801019E02068DFF8181B884202D15FF469
:101C7000801011E02068DFF80C1B884202D15FF46D
:101C8000801009E02068DFF8001B884202D15FF471
:101C9000801001E05FF0806077490860206800688C
:101CA000000309D4312084F83500B8E159600240BE
:101CB000046002400060024020680068000340F1B8
:101CC000AE81412084F83500A9E120680068C00594
:101CD00005D42068006830F008002168086020689A
:101CE000DFF85C1B884260D32068DFF888198842DF
:101CF00001D1102056E02068DFF87C19884201D11C
:101D000010204FE02068DFF87419884201D11020BC
:101D100048E02068DFF86819884201D1102041E0CE
:101D20002068DFF88418884202D14FF4806039E0DF
:101D30002068DFF83C19884202D14FF4806031E01E
:101D40002068DFF84019884202D14FF4806029E012
:101D50002068DFF8241A884202D14FF4806021E025
:101D60002068DFF8181A884202D15FF4801019E069
:101D70002068DFF80C1A884202D15FF4801011E06D
:101D80002068DFF8001A884202D15FF4801009E071
:101D90002068DFF8F419884202D15FF4801001E076
:101DA0005FF080603149086036E12068DFF8A01BF1
:101DB000884269D32068DFF8BC18884201D110201E
:101DC0005EE02068DFF8B018884201D1102057E0AB
:101DD0002068DFF8A818884201D1102050E0206860
:101DE000DFF89C18884201D1102049E02068DFF814
:101DF000B817884202D14FF4806041E02068DFF8D4
:101E00007018884202D14FF4806039E02068DFF812
:101E10007418884202D14FF4806031E02068DFF806
:101E20005819884202D14FF4806029E02068DFF819
:101E30004C19884202D15FF4801021E02068DFF85D
:101E40004019884202D15FF4801019E02068DFF861
:101E50003419884202D15FF4801011E02068DFF865
:101E6000281988420AD15FF4801009E00C6402400E
:101E7000086402400C600240086002405FF080602D
:101E8000DFF83C1B0860C7E02068DFF8381B884299
:101E900061D32068DFF8DC17884201D1102056E0BA
:101EA0002068DFF8D417884201D110204FE0206865
:101EB000DFF8C817884201D1102048E02068DFF819
:101EC000C017884201D1102041E02068DFF8D81601
:101ED000884202D14FF4806039E02068DFF8901723
:101EE000884202D14FF4806031E02068DFF8941717
:101EF000884202D14FF4806029E02068DFF878182A
:101F0000884202D14FF4806021E02068DFF86C182D
:101F1000884202D15FF4801019E02068DFF8601871
:101F2000884202D15FF4801011E02068DFF8541875
:101F3000884202D15FF4801009E02068DFF8481879
:101F4000884202D15FF4801001E05FF08060DFF82A
:101F5000781A086060E02068DFF81817884201D11D
:101F6000102056E02068DFF81017884201D11020B9
:101F70004FE02068DFF80417884201D1102048E0C4
:101F80002068DFF8FC16884201D1102041E020686B
:101F9000DFF81416884202D14FF4806039E02068DF
:101FA000DFF8CC16884202D14FF4806031E020681F
:101FB000DFF8D016884202D14FF4806029E0206813
:101FC000DFF8B417884202D14FF4806021E0206826
:101FD000DFF8A817884202D15FF4801019E020686A
:101FE000DFF89C17884202D15FF4801011E020686E
:101FF000DFF89017884202D15FF4801009E0206872
:10200000DFF88417884202D15FF4801001E05FF0AE
:102010008060DFF8B8190860312084F83500206C42
:10202000002802D02000216C88472068DFF81018B3
:10203000884262D3DFF8980900682168DFF8342607
:10204000914201D1202156E02168DFF82C269142EF
:1020500001D120214FE02168DFF82026914201D1F3
:10206000202148E02168DFF81826914201D1202183
:1020700041E02168DFF83025914202D14FF4006140
:1020800039E02168DFF8E825914202D14FF4006180
:1020900031E02168DFF8EC25914202D14FF4006174
:1020A00029E02168DFF8D026914202D14FF4006187
:1020B00021E02168DFF8C426914202D15FF40011CB
:1020C00019E02168DFF8B826914202D15FF40011CF
:1020D00011E02168DFF8AC26914202D15FF40011D3
:1020E00009E02168DFF8A026914202D15FF40011D7
:1020F00001E05FF00061084030E12068DFF850182F
:10210000884262D3DFF8CC0800682168DFF86425D4
:10211000914201D1202156E02168DFF85C259142EF
:1021200001D120214FE02168DFF85025914201D1F3
:10213000202148E02168DFF84825914201D1202183
:1021400041E02168DFF86024914202D14FF4006140
:1021500039E02168DFF81825914202D14FF400617F
:1021600031E02168DFF81C25914202D14FF4006173
:1021700029E02168DFF80026914202D14FF4006186
:1021800021E02168DFF8F425914202D15FF40011CB
:1021900019E02168DFF8E825914202D15FF40011CF
:1021A00011E02168DFF8DC25914202D15FF40011D3
:1021B00009E02168DFF8D025914202D15FF40011D7
:1021C00001E05FF000610840C8E02068DFF8F41724
:1021D000884262D3DFF8000800682168DFF89424A1
:1021E000914201D1202156E02168DFF88C249142F0
:1021F00001D120214FE02168DFF88024914201D1F4
:10220000202148E02168DFF87824914201D1202183
:1022100041E02168DFF89023914202D14FF4006140
:1022200039E02168DFF84824914202D14FF400617F
:1022300031E02168DFF84C24914202D14FF4006173
:1022400029E02168DFF83025914202D14FF4006186
:1022500021E02168DFF82425914202D15FF40011CA
:1022600019E02168DFF81825914202D15FF40011CE
:1022700011E02168DFF80C25914202D15FF40011D2
:1022800009E02168DFF80025914202D15FF40011D6
:1022900001E05FF00061084060E0DFF8400700689F
:1022A0002168DFF8D023914201D1202155E0216837
:1022B000DFF8C423914201D120214EE02168DFF8EC
:1022C000BC23914201D1202147E02168DFF8B023EF
:1022D000914201D1202140E02168B34A914202D1CC
:1022E0004FF4006139E02168DFF88423914202D184
:1022F0004FF4006131E02168DFF88823914202D178
:102300004FF4006129E02168DFF86C24914202D18A
:102310004FF4006121E02168DFF86024914202D18E
:102320005FF4001119E02168DFF85424914202D1D2
:102330005FF4001111E02168DFF84824914202D1D6
:102340005FF4001109E02168DFF83C24914202D1DA
:102350005FF4001101E05FF000610840002800F028
:102360002E8320680068C00640F129832068006839
:10237000400340F196812068DFF8C41488425DD3A1
:102380002068DFF8F012884201D1202052E0206856
:10239000DFF8E412884201D120204BE02068DFF80A
:1023A000DC12884201D1202044E02068B4498842F0
:1023B00001D120203EE020687B49884202D14FF4C1
:1023C000006037E02068AA49884202D14FF40060DB
:1023D00030E02068AB49884202D14FF4006029E028
:1023E0002068DFF89413884202D14FF4006021E0A6
:1023F0002068DFF88813884202D15FF4001019E0EA
:102400002068DFF87C13884202D15FF4001011E0ED
:102410002068DFF87013884202D15FF4001009E0F1
:102420002068DFF86413884202D15FF4001001E0F5
:102430005FF00060DFF8A81508600DE12068DFF8A4
:102440001015884255D320688A49884201D120203E
:102450004BE020688849884201D1202045E020686F
:102460008649884201D120203FE020688449884283
:1024700001D1202039E020684B49884202D14FF435
:10248000006032E020687A49884202D14FF400604F
:102490002BE020687B49884202D14FF4006024E0A1
:1024A0002068B549884202D14FF400601DE02068E1
:1024B000B249884202D15FF4001016E02068B049AA
:1024C000884202D15FF400100FE02068AD498842D5
:1024D00002D15FF4001008E02068AB49884202D1C5
:1024E0005FF4001001E05FF00060DFF8D4140860D2
:1024F000B2E02068DFF8CC14884257D320685D49E9
:10250000884201D120204BE020685B49884201D1FC
:10251000202045E020685949884201D120203FE031
:1025200020685749884201D1202039E020681E499F
:10253000884202D14FF4006032E020684C49884262
:1025400002D14FF400602BE020684E49884202D14E
:102550004FF4006024E020688749884202D14FF49C
:1025600000601DE020688549884202D15FF40010B8
:1025700016E020688249884202D15FF400100FE023
:1025800020688049884202D15FF4001008E020688A
:102590007D49884202D15FF4001001E05FF00060E5
:1025A000DFF82414086057E02860024020683149B1
:1025B000884201D120204CE020682F49884201D177
:1025C000202046E020682D49884201D1202040E0AB
:1025D00020682B49884201D120203AE02068DFF8AA
:1025E0000414884202D14FF4006032E02068204990
:1025F000884202D14FF400602BE0206821498842D4
:1026000002D14FF4006024E020685B49884202D187
:102610004FF400601DE020685849884202D15FF401
:10262000001016E020685649884202D15FF400107D
:102630000FE020685349884202D15FF4001008E09F
:1026400020685149884202D15FF4001001E05FF038
:102650000060DFF87813086020680068000313D476
:10266000606C002800F0AB812000616C8847A6E117
:102670002864024010600240106402407060024012
:10268000706402408860024020680068000340F1E6
:102690009681E06B002800F092812000E16B884772
:1026A0008DE120680068C00505D42068006830F01E
:1026B00010002168086020686149884266D320685C
:1026C000DFF82413884201D1202051E02068DFF890
:1026D0001C13884201D120204AE02068DFF8101343
:1026E000884201D1202043E02068DFF808138842A7
:1026F00001D120203CE02068DFF8E812884202D1B6
:102700004FF4006034E02068DFF8EC12884202D118
:102710004FF400602CE02068DFF8E012884202D11C
:102720004FF4006024E020681349884202D14FF43E
:1027300000601DE020681149884202D15FF400105A
:1027400016E020680E49884202D15FF400100FE0C5
:1027500020680C49884202D15FF4001008E020682C
:102760000949884202D15FF4001001E05FF0006087
:102770009B49086015E100BF886402404060024048
:1027800040640240A0600240A0640240206870499A
:10279000884257D320689449884201D120204BE0D9
:1027A00020689249884201D1202045E02068904964
:1027B000884201D120203FE020688E49884201D123
:1027C000202039E020688749884202D14FF4006018
:1027D00032E020688849884202D14FF400602BE043
:1027E00020688649884202D14FF4006024E02068C6
:1027F0008349884202D14FF400601DE0206881497E
:10280000884202D15FF4001016E020687E498842B9
:1028100002D15FF400100FE020687C49884202D1A9
:102820005FF4001008E020687949884202D15FF423
:10283000001001E05FF0006061490860B1E000BF96
:102840005964024020685F49884254D32068664931
:10285000884201D120204BE020686449884201D1A0
:10286000202045E020686249884201D120203FE0D5
:1028700020686049884201D1202039E02068594908
:10288000884202D14FF4006032E020685A49884201
:1028900002D14FF400602BE020685849884202D1F1
:1028A0004FF4006024E020685549884202D14FF47B
:1028B00000601DE020685349884202D15FF4001097
:1028C00016E020685049884202D15FF400100FE002
:1028D00020684E49884202D15FF4001008E0206869
:1028E0004B49884202D15FF4001001E05FF00060C4
:1028F0003549086055E020683B49884201D12020D5
:102900004DE020683949884201D1202047E0206805
:102910003749884201D1202041E02068354988426A
:1029200001D120203BE020682E49884202D14FF49B
:10293000006034E020683049884202D14FF40060E2
:102940002DE020682D49884204D14FF4006026E034
:10295000B960024020682A49884202D14FF40060E1
:102960001DE020682749884202D15FF4001016E07C
:1029700020682549884202D15FF400100FE02068EA
:102980002249884202D15FF4001008E02068204903
:10299000884202D15FF4001001E05FF000600B4953
:1029A0000860E06CE064112084F83500002084F8B1
:1029B0003400E06B002802D02000E16B884710BD96
:1029C00008640240596002400C6002400860024006
:1029D000046402400064024004600240006002405F
:1029E0000C64024028600240106002401064024003
:1029F00070600240706402402864024088600240B7
:102A0000886402404060024040640240A06002408E
:102A1000A06402404FF4E07210440268914203D374
:102A200043681A44914202D380680028F5D1704768
:102A3000DFF85C07016891B94FF4803181604FF491
:102A4000805141604FF0FF31C16001610421DFF826
:102A500044274161C2F8BC11DFF83C170160012036
:102A6000704701F1080313F0070305D001F10803D3
:102A7000C3F1080303F007031944D21A8161C2604D
:102A800042F001034B60114428234B60DFF800172C
:102A90000969C16170472DE9F84F064601F1080048
:102AA00010F0070008BF884607D001F10800C0F108
:102AB000080000F0070001EB000802F1080010F028
:102AC000070006D002F10800C0F1080000F007007E
:102AD00002441546A5EB0800A0EB030908EB030B25
:102AE00043F00300C8F80400AB4528BF01F00CFA1E
:102AF0002879C00758BF01F007FAB9F1100F38BFA5
:102B000001F002FAB069854209D1F0684844F060EA
:102B1000C6F818B040F00100CBF8040070E170690D
:102B200085420BD1B0684844B060C6F814B040F09C
:102B30000101CBF804104BF8000061E1686800F077
:102B40000301012940F0AF80C008C0000190C00817
:102B500020283BD2D5F808A0EF680090BD4208BFFE
:102B600001F0D2F9554508BF01F0CEF96868009927
:102B7000C008C000B0EBC10F18BF01F0C5F9009844
:102B800006EBC00000F128018A4508D031698A456A
:102B9000C0F08480DAF80C10A94240F07F805745DD
:102BA00006D1009A3068012191408843306077E077
:102BB0002830874205D0306987426FD3B868A84271
:102BC0006CD1CAF80C70C7F808A069E0EF68D5F8B6
:102BD00018A0AF420CD0A8683169884223D3C168DD
:102BE000A94204BFB968A9421DD1C760B8601CE002
:102BF00005F11400076837B905F110000768A7B19F
:102C000001E00846076807F114010A68002A02BFBC
:102C100007F110010A68002AF3D13169884202D312
:102C20000021016001E001F06FF9BAF1000F37D027
:102C3000E86906EB80004FF49871084401688D4202
:102C400008D10760A7B9EA697068012191408843FB
:102C5000706025E03069824508D3DAF81000A84298
:102C600014BFCAF81470CAF8107001E001F04CF9F2
:102C7000B7B13069874211D3C7F818A0296929B1C3
:102C8000814226BF39618F6101F03EF9686938B130
:102C90003169884202D37861876101E001F034F93B
:102CA00001980544814468684008400068604FEA24
:102CB000D90549F00100CBF804004BF80990202D0C
:102CC00023D206EBC50000F12807BA46B9F1100F70
:102CD00038BF01F019F9306820FA05F1C90704D4AA
:102CE0000121A9400843306006E0B8683169884294
:102CF0002CBF824601F008F9C7F808B0CAF80CB03A
:102D0000CBF808A0CBF80C707AE05FEA192108BF75
:102D1000002023D0B1F5803F28BF1F201ED2A1F58F
:102D20008070000C00F008008140A1F58052120C68
:102D300002F004029140A1F580431B0CC0F10E008B
:102D400003F00203801AC01A994000EBD130C11D74
:102D500029FA01F202F0010101EB400006EB8001CB
:102D60004FF498721144CBF81C000022CBF81420C9
:102D7000CBF81020726822FA00F3DB0707D4012396
:102D800003FA00F010437060C1F800B01DE009685C
:102D90001F281DBF4008C0F1190009FA00F048467D
:102DA00000E011464A68D208D2004A4514D0C20F4A
:102DB00001EB820202F1100340001A68002AF0D1F0
:102DC000306983421AD3C3F800B0CBF81810CBF89F
:102DD0000CB0CBF808B013E032698868914228BF84
:102DE00090420BD3C0F80CB0C1F808B0CBF8080083
:102DF000CBF80C100020CBF8180001E001F084F8AB
:102E000008F10800BDE8E68F2DE9FA4D0546DFF828
:102E10008003006882B008B9FFF70AFEDFF870038C
:102E20000299806841182F31401E21EA0000029962
:102E3000814280F0A9814FF4D8716E18B16839B120
:102E400032688018824280F09F818142C0F09C816C
:102E500001F05EF800281EBF0446D0F8008014F18F
:102E6000010F00F091813068716840448142306008
:102E700038BF01467160A86980BB286908B18442E7
:102E800000D22C610020F0613461C6F8148005F195
:102E90002801BF48006868624FF0FF3028620020B8
:102EA000C960896001F108024A610A61801C103121
:102EB0002028F5D3B748854203D1A8F1280221463E
:102EC0002AE055F8040CC00805EBC000A0F1080189
:102ED00004EB0800401AA0F128021DE04FF4E07056
:102EE0002918084600E08068D0B1026843681A4497
:102EF0009442F8D1027B120712D4AA6903689A425D
:102F00000ED347683B449A420AD208EB070141605E
:102F1000E868A96908EB00022846FFF7A2FD1DE159
:102F200028698442084638BF2C6104EB080100E0A0
:102F3000806880B102688A42FAD1017B09070AD40D
:102F400004604168414441602146029B284604B028
:102F5000BDE8F04D9FE5AF6939462846FFF75AFDB9
:102F60004FF0000B0168406808440190273810F0CA
:102F7000070101990EBF0020C0F1080000F0070012
:102F800008442F3807F11001884234BF00970090A1
:102F9000009804F1080100F1180A11F00701A8F1E6
:102FA000280005D004F10801C1F1080101F0070172
:102FB000401A2144A961E86040F001024A600844D7
:102FC0002822426072480069E8610098083010F0D9
:102FD000070018BF00F098FF00991B2048604FF4CD
:102FE000E0712944B1E80C5000980830A0E80C507A
:102FF0003461C6F81480C6F81CB000980830B0617F
:10300000019801E00AF1040A0721CAF804100BF143
:10301000010B0AF108018142F4D3BBF1020FB8BFE2
:1030200000F072FF0098B84200F09880C01B391879
:10303000C4084A68520852004A6040F001017960B1
:103040003850202C20D205EBC40101F12806B046EF
:10305000102838BF00F058FF286820FA04F1C9078B
:1030600004D40121A1400843286006E0B068296922
:1030700088422CBF804600F047FFB760C8F80C704C
:10308000C7F80880FE6069E0010A23D0B1F5803FEF
:1030900028BF1F211ED2A1F58072120C02F0080277
:1030A0009140A1F580531B0C03F004039940A1F556
:1030B0008044240CC2F10E0204F00204D21A121B46
:1030C000A14002EBD131CA1D20FA02F303F0010244
:1030D00002EB410105EB81024FF498731A44F96148
:1030E00000237B613B616B6823FA01F4E40705D49C
:1030F000012088401843686017601CE012681F298F
:103100001DBF4908C1F1190100FA01F1014600E0B3
:103110001A465368DB08DB00834210D0CB0F02EB6A
:10312000830303F1100449002368002BF0D12869C0
:10313000844211D32760BA61FF60BF600EE0296945
:1031400090688A4228BF884206D3C7609760B860FB
:10315000FA600020B86101E000F0D6FEE86802994C
:10316000814211D2401AE860A969029A0A44AA6110
:1031700040F001005060029840F00300486004B045
:1031800001F10800BDE8F08D002004B0BDE8F08D2D
:10319000846C0020206800206859883C2DE9F84F95
:1031A0000446002689465FEA1920C9F1000B08BFD2
:1031B000002123D0B0F5803F28BF1F211ED2A0F5EB
:1031C0008071090C01F008018840A0F58052120CB2
:1031D00002F004029040A0F580431B0CC1F10E01E7
:1031E00003F00203891AC91A984001EBD030C11DBF
:1031F00029FA01F202F0010101EB400104EB810028
:10320000D0F8300118B31F290FBF4A464A08C2F14F
:10321000190209FA02F2002300E052004568ED08A5
:10322000ED00A5EB09055D4503D25FEA050B0646F7
:103230000BD04569D70F00EB8700002D00691CBF3C
:1032400085422B460028E8D11846B8BBC6BB0120F2
:1032500088404000414208436168084000F05D81B9
:1032600041420840401E010B01F01001C8404209D4
:1032700002F00802D040830803F00403D840450858
:1032800005F002055118E8405918C0F340072944D9
:103290003944F840401804EB8000D0F830010DE0CC
:1032A00008464168C908C900A1EB090159453CBF5E
:1032B0008B46064601690029F2D140690028F0D109
:1032C000002E00F02A81A068A0EB0900834580F061
:1032D000248120698642C0F01E817068C00809EB15
:1032E0000B08C000404518BF00F00EFE06EB0905B4
:1032F000AE4280F01081F768D6F818A0B7420CD023
:10330000B0682169884223D3C168B14204BFB9685B
:10331000B1421DD1C760B8601CE006F11400076817
:1033200037B906F110000768A7B101E00846076841
:1033300007F114010A68002A02BF07F110010A68A8
:10334000002AF3D12169884202D30021016001E003
:1033500000F0DAFDBAF1000F39D0F06904EB80001B
:103360004FF49871084401688E4209D10760380013
:1033700014D1F2696068012191408843606026E0C1
:103380002069824508D3DAF81000B04214BFCAF8A9
:103390001470CAF8107001E000F0B6FDBFB12069EA
:1033A000874212D3C7F818A0306930B1216988422A
:1033B00026BF3861876100F0A7FD706938B12169C7
:1033C000884202D37861876101E000F09DFDBBF186
:1033D000100F09D248F00300706006EB0800416846
:1033E00041F00101416095E049F0030070604BF04D
:1033F000010068604FEADB0045F80BB020281DD2C1
:1034000004EBC00101F12807216821FA00F2D2077C
:10341000BB4605D4012202FA00F00843206006E012
:10342000B868216988422CBF834600F06DFDBD60FD
:10343000CBF80C50C5F808B0EF606BE05FEA1B20DA
:1034400023D0B0F5803F28BF1F201ED2A0F5807189
:10345000090C01F008018840A0F58052120C02F01E
:1034600004029040A0F580431B0CC1F10E0103F053
:103470000203891AC91A984001EBD030C11D2BFAFA
:1034800001F202F0010101EB400004EB80014FF476
:1034900098721144E86100226A612A61626822FA26
:1034A00000F3DB0706D4012303FA00F01043606049
:1034B0000D601CE009681F281DBF4008C0F11900FD
:1034C0000BFA00F0584600E011464A68D208D200D4
:1034D0005A4510D0C20F01EB820202F110034000E6
:1034E0001A68002AF0D12069834211D31D60A961B6
:1034F000ED60AD600EE022698868914228BF90427D
:1035000006D3C5608D60A860E9600020A86101E075
:1035100000F0FAFC08E100F0F7FC02E12DE9F84FB9
:1035200004468846606841420840401E010B01F095
:103530001001C840420902F00802D040830803F09D
:103540000403D840450805F002055118E840591811
:10355000C0F3400629447118F040401804EB800085
:10356000D0F830014168C908C9000646A1EB080A35
:1035700009E008464168C908C900A1EB08015145A6
:103580003CBF8A46064601690029F2D140690028FD
:10359000F0D120698642C0F0C2807068C00808EB94
:1035A0000A09C000484518BF00F0AEFC06EB080B46
:1035B0005E4580F0B480F768B569B7420CD0B0685A
:1035C0002169884223D3C168B14204BFB968B142BE
:1035D0001DD1C760B8601CE006F11400076837B958
:1035E00006F110000768A7B101E00846076807F177
:1035F00014010A68002A02BF07F110010A68002AB4
:10360000F3D12169884202D30021016001E000F07A
:103610007BFC002D35D0F06904EB80004FF49871ED
:10362000084401688E4209D10760380011D1F2695F
:103630006068012191408843606022E020698542F2
:1036400005D32869B04214BF6F612F6101E000F01B
:103650005BFCB7B12069874211D3BD61306930B1DD
:103660002169884226BF3861876100F04DFC70698E
:1036700038B12169884202D37861876101E000F0A6
:1036800043FCBAF1100F09D249F00300706006EB59
:103690000900416841F0010141603FE048F003004A
:1036A00070604AF00100CBF804004BF80AA0D4F88F
:1036B00008804FEAD805202D28BF00F025FCB8F17E
:1036C000000F27D0D4F81490009504EBC50000F14A
:1036D00028052F46B8F1100F38BF00F015FC206800
:1036E000009920FA01F2D10705D4009A01219140F6
:1036F0000843206006E0A868216988422CBF07467D
:1037000000F002FCC5F80890C7F80C90C9F80870E2
:10371000C9F80C50C4F808A0C4F814B004E000F0D4
:10372000F3FB0020BDE8F28F06F10800BDE8F28F40
:103730002DE9F04F83B00546C046C046F52DDFF8B1
:10374000C04780F002810B2D31BF102705F10B001F
:10375000C708FF002068FE08F04010F0030F42D0B9
:10376000C04300F00100861904EBC60000F12808F0
:10377000F700D8F808506868C008C000B84218BF01
:1037800000F0C2FBD5F80890454508BF00F0BCFB2F
:103790004D4508BF00F0B8FB6868C008C000B842DB
:1037A00018BF00F0B1FBC84505D120680121B14028
:1037B000884320600DE02069814508D3D9F80C00CA
:1037C000A84204D1C8F80890C9F80C8001E000F0C4
:1037D0009BFB47F003006860E8190835416841F039
:1037E00001014160F9E0A168B94280F0C080002881
:1037F00000F0A280012505FA06F149004A42B040D6
:103800001143084041420840401E010B01F01001E5
:10381000C840420902F00802D040830803F00403C4
:10382000D840460806F002065118F0405918C0F377
:1038300040087118414420FA08F000EB010804EB3D
:10384000C80000F128094FEAC80AD9F80860706872
:10385000C008C000504518BF00F056FBD6F808B0AD
:103860004E4508BF00F050FB5E4508BF00F04CFB22
:103870007068C008C000504518BF00F045FBD9452E
:1038800005D1206805FA08F1884320600DE0206921
:10389000834508D3DBF80C00B04204D1C9F808B066
:1038A000CBF80C9001E000F02FFB47F003007060B4
:1038B000AAEB0708F019019048F00100019948604F
:1038C000019840F80880A7684FEAD70ABAF1200F9C
:1038D00028BF00F019FB47B3CDF800A004EBCA00E5
:1038E000D4F8149000F1280AD346102F38BF00F006
:1038F0000BFB2068009920FA01F2D10705D400994A
:1039000005FA01F10843206007E0DAF808002169B0
:1039100088422CBF834600F0F7FACAF80890CBF82B
:103920000C90C9F808B0C9F80CA0C4F8088006F1DA
:1039300008050198606150E06068C0B339462046D0
:10394000FFF7ECFD050012D047E015F1400F28BF4E
:103950004FF0FF370BD205F10B00C7086068FF007E
:1039600028B139462046FFF719FC050035D1A0687B
:10397000B8421CD3C11B626910290AD3D0196061F7
:10398000A16041F001034360415047F003005060E3
:103990000AE00021A160616140F003015160104420
:1039A000416841F00101416002F1080515E0E0685D
:1039B00087420DD2C01BA169E060CA19A26140F024
:1039C0000100506001F1080547F00300486004E081
:1039D00039462046FFF718FA0546C046C046284635
:1039E00003B0BDE8F08F00B970472DE9F047A0F1B2
:1039F0000804C046C046DFF8085528698442C0F074
:103A00007982616801F00302012A00F07382CA081A
:103A10004FEAC208CA0704EB080937D4226811F03C
:103A2000030F00F0698251420C4484429044C0F07C
:103A3000618269698C4200F0D980D608202E70D24C
:103A4000D4F80CA0A768544508BF00F05DFABC424A
:103A500008BF00F059FA6068C008C000B0EBC60F9C
:103A600018BF00F051FA05EBC60000F128018F42A3
:103A700005D029698F4251D3F968A1424ED1BA4588
:103A80003DD128680121B140884328604C4580F031
:103A90003182D9F80400C10740F12C82810700F17E
:103AA0007D81A969894540F0B680E868AC614044F1
:103AB000E86040F00101616069698C4202D1002137
:103AC0006961A960E969814280F01682DFF83404F7
:103AD000006808B9FEF7ACFFA969002900F00C8264
:103AE000E868292824BF2846FEF794FFE869E968BA
:103AF000884280F001824FF0FF30E861FCE128301D
:103B0000824506D02869824508D3DAF80800A04229
:103B100004D1C7F80CA0CAF80870B7E700F0F4F9B0
:103B2000B4E7E768A669A7420BD0A168814222D317
:103B3000C868A04204BFB868A0421CD1CF60B96079
:103B40001BE004F114010F6837B904F110010F688C
:103B50009FB101E011460F6807F114021368002BB2
:103B600002BF07F110021368002BF3D1814202D388
:103B70000020086001E000F0C7F9002E86D0E0695F
:103B800005EB80004FF49871084401688C4209D11C
:103B90000760380011D1E2696868012191408843CB
:103BA000686073E72869864205D33069A04214BF74
:103BB0007761376101E000F0A7F9002F3FF466AFAD
:103BC00028698742AAD3BE61216929B1814226BFF3
:103BD00039618F6100F098F9606900283FF456AFB1
:103BE000296988429AD3786187614FE799F8040080
:103BF00000F0030003287FF449AFC5F80880D9F826
:103C0000040040084000C9F8040048F0010060606A
:103C100044F8088070E16969894508D1A8686C6139
:103C20004044A86040F001016160205064E1C00898
:103C3000C0004FEAD00ABAF1200F804437D2D9F839
:103C40000C70D9F80860B94508BF00F05DF9B145BE
:103C500008BF00F059F9D9F80400C008C000B0EB63
:103C6000CA0F18BF00F050F905EBCA0000F1280197
:103C70008E4207D029698E42C0F08380F1684945A1
:103C800040F07F80B74206D12868012101FA0AF18D
:103C90008843286077E02830874205D0286987422A
:103CA0006FD3B86848456CD1F760BE606BE0D9F857
:103CB0000C70D9F818604F450DD0D9F80800296963
:103CC000884223D3C168494504BFB96849451DD11D
:103CD000C760B8601CE009F11400076837B909F142
:103CE00010000768A7B101E00846076807F1140152
:103CF0000A68002A02BF07F110010A68002AF3D1FE
:103D00002969884202D30021016001E000F0FCF83B
:103D1000002E38D0D9F81C0005EB80004FF49871C4
:103D20000844016889450AD10760380012D1D9F8E2
:103D30001C206868012191408843686023E028695D
:103D4000864205D33069484514BF7761376101E089
:103D500000F0DAF8BFB12869874212D3BE61D9F802
:103D6000101029B1814226BF39618F6100F0CCF873
:103D7000D9F8140038B12969884202D37861876183
:103D800001E000F0C1F848F00100606044F80880EC
:103D9000686984420BD1C5F80880ADE04008400056
:103DA000C9F8040048F00100606044F808804FEA58
:103DB000D807202F22D205EBC70000F128094E4674
:103DC000B8F1100F38BF00F09FF8286820FA07F10B
:103DD000C90704D40121B9400843286007E0D9F895
:103DE0000800296988422CBF064600F08DF8C9F802
:103DF0000840F460A660C4F80C907DE05FEA1820EB
:103E000008BF002123D0B0F5803F28BF1F211ED25C
:103E1000A0F58071090C01F008018840A0F58052DE
:103E2000120C02F004029040A0F580431B0CC1F17B
:103E30000E0103F00203891AC91A984001EBD03031
:103E4000C11D28FA01F202F0010101EB400105EB6E
:103E500081004FF498721044002262612261E16196
:103E60006A6822FA01F3DB0706D4012303FA01F1A1
:103E70001143696004601CE000681F291DBF4908E8
:103E8000C1F1190108FA01F1414600E0104642680B
:103E9000D208D200424510D0CA0F00EB820202F1D4
:103EA000100349001A68002AF0D129698B4211D306
:103EB0001C60A061E460A4600EE02A698168904201
:103EC00028BF914206D3CC608460E060A1600020EE
:103ED000A06101E000F018F8286A401E28620BD1AA
:103EE000D5F8C80100E080680028FCD14FF0FF3011
:103EF000286201E000F008F8C046C046BDE8F0873F
:103F000020680020846C0020012000F017B8000019
:103F10000749086808B1002070470648C008C0007B
:103F200008600549C908C900091A0160704700BF47
:103F3000D46C00202F090020281E002080B5C04628
:103F4000C046024A11001820ABBEFBE72600020063
:103F50000EB418B504000898012817D1A06B30F4EE
:103F60008030A063E068DFF88C170840E060E0680C
:103F700030F44010E0600E98012803D1E06850F45E
:103F80008010E060200000F02DFE09E0E06850F0B5
:103F90004000E060200000F025FE5FF48030A06368
:103FA0000698012807D1A06850F00C00A060A06816
:103FB00050F02000A060002012BC5DF810FB81686A
:103FC00051F0010181600020704781684908490073
:103FD00081600020704780B5C26832F0C042C26084
:103FE000C9B2012904D1C16851F00051C16006E095
:103FF000C9B2002903D1C16851F08041C1603220AB
:1040000000F012FE002002BD0EB418B5040000201E
:10401000A06B50F40020A0630C98002803D1A06B83
:1040200050F40010A063002014F56061086014F5DE
:104030000060006814F500610860089801280CD140
:104040000598002804D10021200000F0D2F808E0F3
:104050000121200000F0CDF803E00321200000F052
:10406000C8F81021200000F0A4F8200000F0B2F8F9
:10407000002014F500610861002014F5006148611A
:104080005FF0FF3014F500618861002014F50061D5
:10409000C861002012E0002114EB401212F51062FA
:1040A000116014EB401111F5106100220A6114EB4C
:1040B000401111F51061FF228A60401C039988426B
:1040C0000ED214EB401111F5106109680029E2D5F8
:1040D0005FF0904114EB401212F510621160E0E7BE
:1040E000002012E0002114EB401212F53062116042
:1040F00014EB401111F5306100220A6114EB4011FC
:1041000011F53061FF228A60401C039988420ED26B
:1041100014EB401111F5306109680029E2D55FF018
:10412000904114EB401212F530621160E0E714F593
:104130000060006930F4807014F500610861069831
:10414000012811D1DFF8D00A14F50061086314F5D5
:104150000060006B40F4803050F0030014F5006103
:10416000086314F50060006B0020A0617FF08040C0
:1041700060610698002803D1A06950F01000A0618A
:10418000A069DFF8981A0843A0610998002803D0B5
:10419000A06950F00800A0610C98012805D1A06921
:1041A00040F0804050F00400A061002012BC5DF897
:1041B00010FB0022890151F020010161521CDFF83F
:1041C000601A8A4201D3032003E001698906F5D40D
:1041D00000207047002110220261491CDFF8402AAC
:1041E000914201D3032003E00269D206F5D40020F6
:1041F000704710F500621268C9B2114310F50060F3
:10420000016000207047002110F50062926812F0F2
:10421000060F01D1002117E010F50062926812F03C
:104220000602022A06D010F50062926812F0060219
:10423000062A01D1032107E010F50060806810F024
:104240000600042800D102210800C0B2704710B453
:104250004A78012A2ED110F50062D269012391F922
:104260000040A3409BB21A4310F50063DA610A785C
:1042700010EB421212F510621268120445D40A784B
:1042800010EB421212F510620B7810EB431010F590
:10429000106000688B685B055B0DCC7853EA844343
:1042A000097853EA815141F0805151F400410843AB
:1042B00010602AE010F50062D269012391F90040F4
:1042C000A34052EA034210F50063DA610A7810EB6A
:1042D000421212F530621268120416D40A7810EBFA
:1042E000421212F530620B7810EB431010F530607B
:1042F00000688B685B055B0DC97853EA814141F02A
:10430000805151F4004108431060002010BC7047F8
:1043100010B44A78012A26D110F50062D26B01232D
:1043200091F90040A3409BB29A4310F50063DA6311
:1043300010F50062D269012391F90040A3409BB2BD
:104340009A4310F50063DA610A7810EB421212F515
:104350001062097810EB411010F51060006830F41D
:104360000040106025E010F50062D26B012391F946
:104370000040A34032EA034210F50063DA6310F50F
:104380000062D269012391F90040A34032EA03425E
:1043900010F50063DA610A7810EB421212F5306210
:1043A000097810EB411010F53060006830F40040DF
:1043B0001060002010BC704770B582B000234B78AD
:1043C000012B40F0ED804B69002B2AD10B7810EBCC
:1043D000431313F510630C7810EB441414F51064B8
:1043E00024696FF3DC441C610B7810EB431313F565
:1043F00010630C7810EB441414F51064246954F421
:1044000000241C610B7810EB431313F510630C7838
:1044100010EB441414F510642469E40CE4041C61EA
:1044200062E00B7810EB431313F510630C7810EB7C
:10443000441414F510642469E40CE4041C610B7842
:1044400010EB431313F510630C7810EB441414F5C0
:10445000106424696FF3DC441C610B7810EB431388
:1044600013F510630C7810EB441414F510642469F0
:104470004D698E6875196D1E8E68B5FBF6F5DFF80F
:10448000A46716EAC5452C431C610B7810EB431357
:1044900013F510630C7810EB441414F510642469C0
:1044A0004D696D036D0B2C431C61CB78012B1BD127
:1044B0000B7810EB431313F510630C7810EB4414D6
:1044C00014F51064246934F0C0441C610B7810EBBF
:1044D000431313F510630C7810EB441414F51064B7
:1044E000246954F000541C61D2B2012A07D10B7820
:1044F00010EB431313F510630C695C6110E0CB788B
:10450000012B0DD04B69002B0AD010F500635B6BBB
:10451000012491F90050AC40234310F5006463631B
:10452000CB78012B21D110F500639B68DB050ED4FD
:104530000B7810EB431313F510630C7810EB441455
:1045400014F51064246854F000541C600DE00B78DE
:1045500010EB431313F510630C7810EB441414F5AF
:104560001064246854F080541C600B7810EB4313E3
:1045700013F510630C7810EB441414F510642468E0
:1045800054F004441C60CB78012B40F0B080D2B2D0
:1045900000924B699BB20A78C96800F0A2F9A6E0C4
:1045A0000B7810EB431313F530630C7810EB4414C5
:1045B00014F530642469E40CE4041C610B7810EBFE
:1045C000431313F530630C7810EB441414F5306486
:1045D00024696FF3DC441C614B69002B1ED10B78FE
:1045E00010EB431313F530630C7810EB441414F5FF
:1045F000306424698D686D036D0B2C431C610B784E
:1046000010EB431313F530630C7810EB441414F5DE
:104610003064246954F400241C612BE04B698C68DD
:10462000E3185B1E8C68B3FBF4F30C7810EB4414B6
:1046300014F530640D7810EB451515F530652D69CE
:104640009BB2DFF8E06516EAC346354325610C7876
:1046500010EB441414F530640D7810EB451515F586
:1046600030652D698E689BB203FB06F35B035B0B21
:104670002B432361D2B2012A06D10A7810EB4212F1
:1046800012F53062CB685361CA78012A21D110F546
:1046900000629268D2050ED40A7810EB421212F52D
:1046A00030620B7810EB431313F530631B6853F043
:1046B000005313600DE00A7810EB421212F53062DD
:1046C0000B7810EB431313F530631B6853F08053E2
:1046D00013600A7810EB421212F53062097810EB81
:1046E000411010F53060006850F004401060002068
:1046F00076BD0000BFFFBDFF30B44B78012B40F00A
:1047000096804B69002B2AD10B7810EB431313F5DD
:1047100010630C7810EB441414F5106424696FF3E3
:10472000DC441C610B7810EB431313F510630C7819
:1047300010EB441414F51064246954F400241C6133
:104740000B7810EB431313F510630C7810EB441443
:1047500014F510642469E40CE4041C613FE00B7858
:1047600010EB431313F510630C7810EB441414F59D
:1047700010642469E40CE4041C610B7810EB43130F
:1047800013F510630C7810EB441414F510642469CD
:104790006FF3DC441C618B684C69A34201D28B68C7
:1047A0004B610B7810EB431313F510630C7810EB8F
:1047B000441414F51064246954F400241C610B782B
:1047C00010EB431313F510630C7810EB441414F53D
:1047D000106424694D696D036D0B2C431C61D2B2CA
:1047E000012A07D10A7810EB421212F510620B6908
:1047F00053610DE04A69002A0AD010F50062526B3D
:10480000012391F90040A3401A4310F500635A6355
:104810000A7810EB421212F51062097810EB411081
:1048200010F51060006850F00440106056E00B78FE
:1048300010EB431313F530630C7810EB441414F5AC
:1048400030642469E40CE4041C610B7810EB43131E
:1048500013F530630C7810EB441414F530642469BC
:104860006FF3DC441C614B69002B01D08B684B61FA
:104870000B7810EB431313F530630C7810EB4414F2
:1048800014F53064246954F400241C610B7810EB97
:10489000431313F530630C7810EB441414F53064B3
:1048A00024698D686D036D0B2C431C61D2B2012A03
:1048B00006D10A7810EB421212F53062CB685361D0
:1048C0000A7810EB421212F53062097810EB4110B1
:1048D00010F53060006850F004401060002030BCDB
:1048E000704770B400240025039C002C13D19BB2A8
:1048F000DB1C042493FBF4F400250AE00B68D2B21D
:104900004FF4805606FB020616F5805633606D1C88
:10491000091DA542F2D3002070BC704710B40023DB
:1049200092B2D21C042392FBF3F2002305E010F5AF
:10493000805424680C605B1C091D9342F7D3080067
:1049400010BC70474A78012A24D10A7810EB421231
:1049500012F510621268002A0DD40A7810EB421288
:1049600012F510620B7810EB431313F510631B68FC
:1049700033F0804313600A7810EB421212F5106294
:10498000097810EB411010F51060006850F4001029
:10499000106023E00A7810EB421212F530621268C0
:1049A000002A0DD40A7810EB421212F530620B780F
:1049B00010EB431313F530631B6833F0804313602F
:1049C0000A7810EB421212F53062097810EB4110B0
:1049D00010F53060006850F400101060002070473F
:1049E0004A78012A22D10A7810EB421212F510629D
:1049F0000B7810EB431313F510631B6833F40013AB
:104A00001360CA78032A02D0CA78022A30D10A7801
:104A100010EB421212F51062097810EB411010F5FC
:104A20001060006850F08050106021E00A7810EBB0
:104A3000421212F530620B7810EB431313F530631A
:104A40001B6833F400131360CA78032A02D0CA78B3
:104A5000022A0DD10A7810EB421212F53062097861
:104A600010EB411010F53060006850F0805010607D
:104A70000020704710F50062126832F4FE6210F5F3
:104A800000631A6010F500621268C9B2090111F4DE
:104A9000FE61114310F5006001600020704780B591
:104AA00010F50061496831F0020110F500604160C5
:104AB000032000F0B9F8002002BD80B510F50061B8
:104AC000496851F0020110F500604160032000F0D8
:104AD000ABF8002002BD0021416980690140080057
:104AE000704710F50061896910F50060C0690140E8
:104AF000080C704710F50061896910F50060C06905
:104B0000014088B27047C9B210EB411111F5306114
:104B1000896810F50060406901400800704710F591
:104B20000062126910F500635B6BCB40DB0113F090
:104B300080031A43C9B210EB411010F51060806871
:104B400010407047406910F00100704710F5106187
:104B50000968C90AC90210F51062116010F50061F8
:104B6000896811F00601042907D110F51061096860
:104B700051F0030110F51062116010F500614968F1
:104B800051F4807110F5006041600020704710B44E
:104B9000002310F53064236110F530631B6953F472
:104BA000002310F53064236110F530631B6953F066
:104BB000180310F53064236110F530631B6953F05E
:104BC000C04310F530642361C9B2012907D110F543
:104BD00030614A615FF0802110F530600160002093
:104BE00010BC70470021491C0D4A914201D303209B
:104BF00011E00269002AF6D50021026952F0010293
:104C00000261491C064A914201D3032003E0026974
:104C1000D207F6D4002070470001800000383C80A5
:104C2000410D03000000F81F11B581B0002400F011
:104C300009F8040000F006F8001B01998842F9D336
:104C400013BD000001480068704700BFCC6C002015
:104C500010B58AB004000020002C01D1012090E0A2
:104C6000032084F87D03200000F0CCFC2068FFF7CF
:104C7000ACF9211D83B06846302200F085FF0EBCE0
:104C80002068FFF765F900212068FFF7A4F90020EC
:104C90002BE001211C2202FB00F2224482F8351095
:104CA0001C2101FB00F1214481F834001C2101FB8F
:104CB00000F12144488700211C2202FB00F222441B
:104CC00082F8371000211C2202FB00F22244D1633B
:104CD00000211C2202FB00F22244116400211C224C
:104CE00002FB00F222449164401C0F28D1D3002023
:104CF00034E000211C2202FB00F2224482F8D91188
:104D00001C2101FB00F1214481F8D8011C2101FB89
:104D100000F12144488700211C2202FB00F22244BA
:104D200082F8DB1100211C2202FB00F22244C2F8AF
:104D3000E01100211C2202FB00F22244C2F8E4111F
:104D400000211C2202FB00F22244C2F8EC110021D7
:104D5000226802EB8002C2F80411401C0F28C8D35D
:104D6000211D83B06846302200F00EFF0EBC206883
:104D7000FFF74AF9012084F87D032068FFF79DFEC4
:104D800000200AB010BD10B5040094F87C0301287F
:104D900001D102200CE0012084F87C032068FFF799
:104DA0007EFE2068FFF70BF9002084F87C030020CA
:104DB00010BD2DE9F04104002568002000275FF0B8
:104DC00000080026002000272068FFF7BBFE00280F
:104DD00040F059822068FFF77EFE002800F05382E1
:104DE0002068FFF778FE800702D50220216848611D
:104DF0002068FFF770FE000373D500262068FFF7D8
:104E000070FE07006BE0F80767D53100C9B2206873
:104E1000FFF779FE80465FEAC87049D515EB46106A
:104E200010F53060012181602069012826D11C2005
:104E300000FB06F02044D0F8E00115EB461111F517
:104E4000306109694903490B401A1C2101FB06F135
:104E50002144C1F8F0011C2000FB06F02044D0F8EA
:104E6000E4011C2101FB06F12144D1F8E0110844C2
:104E70001C2101FB06F12144C1F8E4013100C9B253
:104E8000200000F0FEFC2069012811D1002E0FD176
:104E90001C2000FB06F02044D0F8EC01002807D1CC
:104EA0004FF4607004EB000201212068FFF76FFEF1
:104EB0005FEA087008D5200000F0DAFC15EB461018
:104EC00010F53060082181605FEAC86005D515EBF8
:104ED000461010F5306010218160761C7F08002F8D
:104EE00091D12068FFF7F7FD40037BD52068FFF7DD
:104EF00001FE0700002673E0F8076FD53100C9B244
:104F00002068FFF70CFE80465FEAC8703BD50120A1
:104F1000B04015F50061496B31EA000015F50061FC
:104F2000486315EB461010F510600121816020697F
:104F300001280FD11C2000FB06F02044006C1C212E
:104F400001FB06F12144C96B08441C2101FB06F159
:104F5000214408643100C9B2200000F0A0FC20699F
:104F6000012810D1002E0ED11C2000FB06F0204499
:104F7000806C002807D14FF4607004EB000201211F
:104F80002068FFF704FE5FEA087005D515EB4610B0
:104F900010F51060082181605FEAC86005D515EB47
:104FA000461010F51060102181605FEA486005D559
:104FB00015EB461010F51060402181605FEA8870A3
:104FC00005D515EB461010F51060022181605FEAEF
:104FD000086003D53100200000F0B6FA761C7F0887
:104FE000002F89D12068FFF776FD00280ED515F532
:104FF000006040684008400015F5006148602000EE
:1050000000F097FC5FF00040216848612068FFF7DE
:1050100062FD00050BD515F500608068C00702D55C
:10502000200000F068FC4FF40060216848612068AF
:10503000FFF751FDC00465D515F5006040684008D4
:10504000400015F50061486000212068FFF7B1F8C5
:1050500000200CE015EB401111F51061FF228A6071
:1050600015EB401111F53061FF228A60401C616828
:105070008842EFD35FF0FF3015F50061886115F5C8
:105080000060C06950F0011015F50061C861E06A68
:10509000002812D015F50060D0F8840050F00B0005
:1050A00015F50061C1F8840015F50060406C50F002
:1050B0000B0015F5006148640FE015F500604069CC
:1050C00050F00B0015F50061486115F500600069AE
:1050D00050F00B0015F50061086115F500600068DF
:1050E00030F4FE6015F5006108604FF4607004EB69
:1050F00000022169C9B22068FFF749FD4FF48050D2
:10510000216848612068FFF7E6FC80042AD5206802
:10511000FFF71CFD2068C06830F470502168C8603B
:105120002068FFF770F800280BD10020E0604FF4F2
:10513000007060612068C06850F410502168C86039
:1051400009E00320E060402060612068C06850F4FE
:10515000A0502168C860200000F0B4FB4FF400505C
:10516000216848612068FFF7B6FCC00647D5206873
:10517000806930F01000216888612F6A17F00F00F5
:105180001C21484320444FF4EC7100EB0108C7F3A5
:10519000434002281AD147F6F070074229D0C7F3DE
:1051A0000A1292B2D8F80C102800FFF7B7FBD8F813
:1051B0000C00C7F30A110844C8F80C00D8F818000E
:1051C000C7F30A110818C8F8180012E0C7F34340E3
:1051D00006280ED108224FF4607004EB000128006D
:1051E000FFF79CFBD8F81800C7F30A110818C8F895
:1051F00018002068806950F01000216888612068DC
:10520000FFF769FC000705D5200000F055FB0820DA
:10521000216848612068FFF75EFCC00208D53100B4
:10522000C9B2200000F0AFFB5FF480102168486134
:105230002068FFF750FC800208D53100C9B2200079
:1052400000F09AFB5FF40010216848612068FFF7C6
:1052500042FC400006D5200000F09CFB5FF080403F
:10526000216848612068FFF736FC40070BD52068AD
:105270004768780702D5200000F092FB206840685C
:10528000384321684860BDE8F08110B5040094F807
:105290007C03012801D102200AE0012084F87C036C
:1052A000C9B22068FFF7E6FB002084F87C030020E9
:1052B00010BD70B504000025C9B2080607D5C9B2F3
:1052C00011F07F001C2670432044343008E0C9B23E
:1052D00011F07F001C26704320444FF4EC763044DC
:1052E00011F07F060670C9B2C909417092B282609E
:1052F000C3704178002901D00178C180DBB2022B54
:1053000001D10021017194F87C13012901D10220FF
:105310000BE0012184F87C1301002068FEF797FF61
:10532000002084F87C032800C0B270BD10B50400D2
:10533000C9B2080607D5C9B211F07F001C2250433C
:105340002044343008E0C9B211F07F001C225043E1
:1053500020444FF4EC72104411F07F020270C9B285
:10536000C909417094F87C13012901D102200AE097
:10537000012184F87C1301002068FEF7C9FF00209A
:1053800084F87C03002010BD38B50400C9B211F0C8
:105390007F001C25684320444FF4EC752844C2600C
:1053A0004361002383610023437011F07F03037086
:1053B0002369012B00D1026194F87C23012A01D1D9
:1053C000022016E0012284F87C237F22114206D1BC
:1053D0002269D2B201002068FFF78EF905E0226948
:1053E000D2B201002068FEF7E7FF002084F87C03BA
:1053F000002032BDC9B211F07F011C225143084484
:10540000D0F8F00180B2704738B50400C9B211F08D
:105410007F001C25684320443430C2604361002370
:1054200083610123437011F07F0303702369012B13
:1054300000D1026194F87C23012A01D1022016E0F8
:10544000012284F87C237F22114206D12269D2B244
:1054500001002068FFF750F905E02269D2B201008F
:105460002068FEF7A9FF002084F87C03002032BDED
:1054700038B504000D00EDB2280608D5EDB215F0E0
:105480007F001C214843204410F1340107E0EDB2B5
:105490001C2000FB05F020444FF4EC710144012076
:1054A000887015F07F0008702800C0B2C0094870ED
:1054B00094F87C03012801D1022015E0012084F832
:1054C0007C032068FFF73EFA7F20054208D14FF4A5
:1054D000607004EB00022169C9B22068FFF757FB36
:1054E000002084F87C03002032BD10B50400C9B24E
:1054F000080607D5C9B211F07F001C225043204492
:10550000343007E0C9B21C2000FB01F020444FF406
:10551000EC7210440022827011F07F020270C9B256
:10552000C909417094F87C13012901D102200AE0D5
:10553000012184F87C1301002068FFF751FA002054
:1055400084F87C03002010BD2DE9F84304000D0011
:1055500026685FF0000800201C2000FB05F02044B6
:1055600010F134077869B969B0EB0108B8684045B3
:1055700001D2D7F8088018F10300042190FBF1F95B
:1055800020E07869B969B0EB0108B868404501D2FC
:10559000D7F8088018F10300042190FBF1F9206985
:1055A000C0B20090404603009BB22A00D2B2F96814
:1055B0003000FFF796F9F8684044F860B86918EBD6
:1055C0000000B86116EB451010F51060806980B2DC
:1055D000814506D2B8697969884202D27869002883
:1055E000CFD1B8F1010F09DA0120A84016F500610A
:1055F000496B31EA000016F5006148630020BDE800
:10560000F283000010B586B004002068B0F1A04F0E
:1056100040F08280DFF80805006850F00100DFF8F4
:1056200000150860DFF8F804006810F00100009031
:1056300000984FF4C0500190022002900020039087
:10564000032004900A20059001A9DFF8D80400F097
:10565000C7FA4FF4007001900020029000200390E0
:1056600001A9DFF8C00400F0BBFA4FF4806001909C
:1056700012200290012003900A20059001A9DFF872
:10568000A40400F0ADFADFF8A004006850F0800038
:10569000DFF894140860DFF89404006850F4804048
:1056A000DFF888140860DFF88404006810F4804094
:1056B0000090009802220021432000F039FC432092
:1056C00000F047FC206A012840F0D0805FF4802081
:1056D000DFF85C140860DFF85C04006830F48020B8
:1056E000DFF850140860DFF85004006850F48020A0
:1056F000DFF844140860DFF84404006850F48020A8
:10570000DFF838140860002202212A2000F010FC83
:105710002A2000F01EFCA9E02068DFF8241488424B
:1057200040F0A480DFF8F803006850F00100DFF8D3
:10573000F0130860DFF8E803006810F00100009043
:105740000098DFF8DC03006850F00200DFF8D013A7
:105750000860DFF8CC03006810F0020000900098A9
:10576000DFF8BC03006850F00400DFF8B4130860F1
:10577000DFF8AC03006810F00400009000982020CF
:1057800001900220029000200390032004900A2040
:10579000059001A9DFF88C0300F022FA082001909F
:1057A0000220029000200390032004900A2005901C
:1057B00001A9DFF8700300F013FA43F623400190CB
:1057C00002200290002003900A20059001A9DFF832
:1057D000740300F005FA01200190022002900020DD
:1057E00003900A20059001A9DFF85C0300F0F8F9A6
:1057F0000820019002200290002003900A200590CA
:1058000001A9DFF8440300F0EBF904200190022025
:105810000290002003900A20059001A9DFF82803D8
:1058200000F0DEF9DFF8F802006850F08040DFF8A1
:10583000F0120860DFF8E802006810F08040009085
:105840000098DFF8DC02006850F00050B4490860AE
:10585000B348006810F00050009000980022052125
:105860004D2000F065FB4D2000F073FB06B010BD2D
:1058700080B54FF460710144D0F8B00300F0CDFB67
:1058800001BD80B5C9B21C2202FB01F20244D2F86C
:10589000E421C9B2D0F8B00300F0F9FB01BD80B536
:1058A000C9B21C2202FB01F20244126CC9B2D0F848
:1058B000B00300F032FC01BD80B5D0F8B00300F0B9
:1058C000CFFC01BD38B504000125E068002802D0F6
:1058D000022802D003E0002502E0012500E00125B6
:1058E000D4F8B00300F087FC2900C9B2D4F8B003A3
:1058F00000F0A4FC31BD10B5040020689049884236
:1059000016D0206810F56060006850F00100216832
:1059100011F560610860D4F8B00300F092FC206AD1
:10592000002805D08948006850F0060087490860C3
:1059300010BD10B50400206A00280BD08448006810
:10594000002807D100F0CFF88048006830F006004A
:105950007E490860206810F56060006840084000DB
:10596000216811F560610860D4F8B00300F072FCA2
:1059700000207749086010BD80B5C9B2D0F8B003E7
:1059800000F080FC01BD80B5C9B2D0F8B00300F0D2
:1059900077FC01BD80B5D0F8B00300F075FC01BD07
:1059A00080B5D0F8B00300F071FC01BD80B55FF0A8
:1059B000A041684A11600421664A51600021654A8D
:1059C000D1624021634A51610021624A1161012183
:1059D000604A116202215F4A916100215D4AD161F2
:1059E00002215C4AD16001215A4A91625949C1F8A9
:1059F000B0035849C0F820125648FFF729F9802112
:105A0000544800F07DFC40220021524800F04AFC3E
:105A1000802201214F4800F045FC002002BD80B5E6
:105A2000D0F82002FFF7AFF9002002BD10B51C002E
:105A30001300DBB2220092B2C9B2D0F82002FFF705
:105A400038FC002010BD80B5C9B2D0F82002FFF7A5
:105A50006DFC002002BD80B5C9B2D0F82002FFF76E
:105A600007FD002002BD80B5C9B2D0F82002FFF7C3
:105A70003CFD002002BDD0F82002C9B20A0608D5BC
:105A8000C9B211F07F011C225143084490F836003E
:105A900007E0C9B211F07F011C225143084490F87D
:105AA000DA01704780B5C9B2D0F82002FFF7EDFBEC
:105AB000002002BD80B59BB2C9B2D0F82002FFF72A
:105AC000A3FC002002BD80B59BB2C9B2D0F8200271
:105AD000FFF75AFC002002BD80B5C9B2D0F8200201
